:020000040000FA
:0400000016EF00F007
:080008009EBE0CEF00F0F2B403
:100010000FEF00F012EF00F045EC03F006D0A4EC77
:1000200002F003D0C5EC02F000D011000F0EC16E3B
:10003000230E896EDC0E926E000E8A6E7F0E936E1A
:10004000000E8B6EFF0E946E000E8D6E170E966E68
:100050003DEC03F070EC02F0FFEC00F0F28CF28E5D
:10006000899085EC02F01EEC03F0FDD7E8BE32D09B
:100070008AB70DD08AB518D0F76A060FD8B0F72A1C
:10008000F66E010EF726F86A0800F55012008AB5E0
:1000900016D0F76A3C0FD8B0F72AF66E010EF72695
:1000A000F86A0800F5501200F76A720FD8B0F72A04
:1000B000F66E010EF726F86A0800F5501200F76A8E
:1000C000A80FD8B0F72AF66E010EF726F86A0800D6
:1000D000F55012003F0B8AA30BD0F76ADE0FD8B0A1
:1000E000F72AF66E010EF726F86A0800F55012009E
:1000F000F76AEE0FD8B0F72AF66E010EF726F86A07
:100100000800F55012003031323334353637383983
:100110006162636465666768696A6B6C6D6E6F7057
:100120007172737475767778797A602D3D5B5D278F
:100130002C2E5C2F3B20090A0A7F0800292122A3CC
:1001400024255E262A284142434445464748494AD9
:100150004B4C4D4E4F505152535455565758595A77
:10016000B05F2B7B7D403C3E7C3F3A20090A0A7FF2
:100170000800303132333435363738394142434460
:1001800045464748494A4B4C4D4E4F5051525354A7
:1001900055565758595A602D3D5B5D272C2E5C2FC4
:1001A0003B20090A0A7F0800292122A324255E2674
:1001B0002A286162636465666768696A6B6C6D6E44
:1001C0006F707172737475767778797AB05F2B7B04
:1001D0007D403C3E7C3F3A20090A0A7F08003031CE
:1001E00032333435363738392E2A2B2D2F009B9D4C
:1001F000A79FA400A59CA69E7F2A2B2D2F00010E51
:10020000826F8B978B898B951200806F8BB555D041
:10021000830E8019D8B436EC01F080BF39EF01F0BD
:10022000010E82194DE0770E8019D8B4B6EC01F0BA
:10023000580E8019D8B4C1EC01F07E0E8019D8B4E4
:10024000CCEC01F08ABF2EEC01F08AB932EC01F05F
:10025000805158EC03F08A9F8A991200E00E58EC06
:1002600003F01200F00E58EC03F012007F0E806FC6
:100270001200F00E801910E0E00E80190FE0FA0E67
:1002800080190EE0FE0E80190DE0AA0E80190CE018
:10029000E10E80190BE012008A8912008A8F120089
:1002A0008B8112008B831200899212008B85070EBE
:1002B000816F8F0E58EC03F01200814F8B95120066
:1002C0008051D7EC01F0E8AE2DD0E8BC2BD0806F88
:1002D000A00AD8B41BD08051FE0B920AD8B4B2EC5D
:1002E00001F0900E8019D8B4B6EC01F0910E80198F
:1002F000D8B4C1EC01F08E0E8019D8B4CCEC01F06A
:100300008BB907D080518AA958EC03F08A998A9F4B
:1003100012008AB932EC01F0805158EC03F08A994E
:100320008A9F120036EC00F0806FA30E801908E05F
:10033000B00E801905E080BFE3D7000E801906E0FB
:100340008BB707D080518AA958EC03F08A998A9F0D
:1003500012008AB932EC01F0805158EC03F08A990E
:100360008A9F12008A878AB98A9712008AB9120076
:100370008A73ED0E0FEC03F0070E8A150FEC03F0F5
:1003800012008AB912008A75ED0E0FEC03F0070E09
:100390008A150FEC03F012008AB912008A71ED0E73
:1003A0000FEC03F0070E8A150FEC03F012008ABF62
:1003B000E5EF01F0F76AE00FD8B0F72AF66E030E0A
:1003C000F726F86A0800F5501200F76A600FD8B0F7
:1003D000F72AF66E040EF726F86A0800F5501200A8
:1003E000FF89FF858381828CFF8A8886843024FF81
:1003F000FF9692FF941A01FFFFFF231C0A20029828
:10040000FF0C210D0E040399FF2F1F0F1D1B059AD2
:10041000FF170B11102206FFFFFF16131E0708FF20
:10042000FF2A1412180009FFFF2B2D152E1925FF86
:10043000FFFF29FF2726FFFF91933128FF2CFFFFA5
:10044000FF2CFFFFFFFF34FFFFC1FFC4C7FFFFFF0B
:10045000C0CAC2C5C6C880908BCCC3CDCBC98E875D
:10046000FFFFFFFFFFFFFFFFFFFFFFFFFFFFFFFF9C
:10047000B397A0A095A8FFFFB9FFFFFFFFFFFF986C
:10048000B8ADFFABFFFFFF99B7FFA0B1FFFFFF9A29
:10049000B6FFACFFA9FFA0BAB5FFB4AAFFFFFFBB30
:1004A000B2FFFFFFFFFFFFFFAFFFCEFFFFA7FFFF82
:1004B000AEFFFFFFFFFFFFFFFFA032FFFFFFBCFF0C
:1004C000FFFFFFFFFFFFFFFFFF9DFFA49CFFFFFF5C
:1004D0009B33A7FFA5A6FFFFFFFF9FFFA19EFFFF86
:1004E000020EDA6E010EE26EEA6EE96AE16AD96A1C
:1004F000896B836B420ED56ED66A020E8A6FF19CB1
:10050000F288F28AF294F2921200310ECD6E200E31
:10051000886F89A20DD09EB0FCD79E90882FF9D706
:1005200032EC03F089A204D0FF0E36EC03F0EDD7D5
:10053000020E8A6F100E8B6FED0E0FEC03F0070E9C
:100540008A150FEC03F012008ABBACEF02F0836B4C
:10055000856BD59EF2941200000E831908E08A8DF7
:100560008A9BD59E9382836B846BF29412008F8159
:100570009392140E8C6F8C2FFED79380F292F28898
:10058000832BF294D59ED66A1200D58E000E831965
:1005900026E0090E831927E00A0E831914E00B0EDA
:1005A00083192AE08ABB06D08543859F81B2858F57
:1005B0000BEF03F084B1938284A1939284B18F7185
:1005C00084430BEF03F08ABB07D0D59E8369855126
:1005D00005EC01F00BEF03F093820BEF03F0856B5A
:1005E000D58E0BEF03F08AAB0BEF03F08FA1939244
:1005F0008FB193820BEF03F081B206D0D59E836951
:100600008A9B846B0BEF03F08A8D8A9B8369D59E4E
:10061000846B0BEF03F0832BD66AF2921200866F85
:10062000D950876F000E891903E0D92AE82EFDD72B
:100630008651DF6E892B8751D96E1200000E891901
:10064000D8B412008B9332EC03F0DF5036EC03F099
:10065000030E8B15FDE08BA1F5D7D92A89078B9165
:100660008B931200000E8319FDE11200846FF29843
:100670009390D66AD58E8A8B1200010EEA6EE26ED6
:10068000E96AE16A9E9E9D8E120096BE0CD0898A10
:100690009E9EE950E118D8B41200E650836E010E18
:1006A000E26E899A1200835061EC03F09E9E120064
:1006B00096BC03D0836E899A1200EE6E010EEA6E2C
:1006C0001200906F060E916F9041E8403C0BDE0FD8
:1006D000D8B0912B926F9151FA6E9251F96E8FEFC3
:1006E00003F08FEF03F08FEF03F08FEF03F08FEF46
:1006F00003F08FEF03F08FEF03F08FEF03F08FEF36
:1007000003F08FEF03F08FEF03F08FEF03F0A5EF0F
:1007100003F0A1EF03F09DEF03F090EF03F0120060
:10072000F10E8A179051070B8A13ED0E0FEC03F0B0
:100730008A51070B0FEC03F012008B9990B18B8953
:1007400012008B9790B18B8712000F0E9015826F5D
:02075000120095
:020000040030CA
:0E000000FF460000FF8181FF0FC00FE00F40A0
:00000001FF
