:020000040000FA
:1000000002EF00F018EC00F0000E846F010E836F19
:10001000949A8B8A550E856F33EC00F044EC00F017
:100020008B9AAA0E856F33EC00F044EC00F0F1D708
:10003000936AEC0E9616FF0E8D6ED00E92163C0E45
:100040008912120084518A6E899A8351898A8A6E34
:10005000000089968D90000080A8FED783508D8087
:100060008986856F120084518A6E899A8351898AA4
:100070008A6E85518C6E956A89968D92000080A853
:10008000FED78D8289861200806B816B080E826F8D
:10009000802F48EF00F0812F48EF00F0822F48EFCB
:0400A00000F012005A
:020000040030CA
:0E000000FF460000FF8181FF0FC00FE00F40A0
:00000001FF
