:020000040000FA
:040000000BEF00F012
:080008009EBA5BEC00F09EBE05
:10001000A7EC06F011000F0EC16E3BEC06F021ECD0
:1000200000F036EC08F0AFEC04F078EC08F049ECA6
:1000300006F090EC05F096EC00F0F2EC06F019EF0B
:1000400000F0846B010EEA6EE96A020EE26EE16A6C
:10005000000E806FC00E9412100EAF6E040EB06EC4
:10006000240EAC6E100EAB6E080EB86EAB8ED08E3A
:100070009E9A9D8AF28E12009EA8FED7AD6E120047
:10008000E16AE6503CEC00F0E6503CEC00F0866F94
:10009000FF0B05E0E6503CEC00F0862FFBD78B9A77
:1000A000E6503CEC00F01200AB98150E3CEC00F072
:1000B000AB88AE501200060EAB14F6E1FC0E8015B4
:1000C000F3E1000EFB6E000EFA6E8051E846E84642
:1000D0006AEF00F0F92673EF00F079EF00F083EF9C
:1000E00000F08AEF00F0AE50816FEE6E836F802BD0
:1000F0001200AE50826FEE6E831B802B000E826367
:100100001200802B1200AE50EE6E831B822F120065
:10011000802B1200AE50EE6E831B05E0831B8483A0
:10012000802BE96A1200802BE96A120080A5120078
:1001300084B31DEF04F0E00E8115D8A433EF04F072
:10014000000EFB6E010EFA6E8151E846E846A9EFFB
:1001500000F0F92649EF04F049EF04F02BEF01F02D
:100160004CEF01F06CEF01F097EF01F0EAEF00F0D7
:100170000BEF01F0BFEF01F0DAEF01F049EF04F00F
:1001800049EF04F049EF04F049EF04F049EF04F0BF
:1001900049EF04F049EF04F049EF04F049EF04F0AF
:1001A00049EF04F049EF04F049EF04F049EF04F09F
:1001B00049EF04F049EF04F049EF04F049EF04F08F
:1001C00049EF04F049EF04F049EF04F049EF04F07F
:1001D00049EF04F0EE50020E916FEE18D8A45DEFD7
:1001E00004F014EC06F0EE50956FEE50946F64EC52
:1001F00006F01CEC06F0E16A8151E66E856F010E97
:10020000E66E851B9651E66E851B8551E66E40ECC9
:1002100000F0ABEF04F0EE50030E916FEE18D8A48F
:100220005DEF04F014EC06F0EE50956FEE50946F15
:10023000EE50966F75EC06F01CEC06F0E16A815109
:10024000E66E856F000EE66E851B8551E66E40EC0E
:1002500000F0ABEF04F0EE50020E916FEE18D8A450
:100260005DEF04F014EC06F0EE50956FEE50946FD5
:1002700087EC06F01CEC06F0E16A8151E66E856FB2
:10028000010EE66E851B9651E66E851B8551E66E66
:1002900040EC00F0ABEF04F0EE50030E916FEE185F
:1002A000D8A45DEF04F014EC06F0EE50956FEE501C
:1002B000946FEE50966F96EC06F01CEC06F0E16A37
:1002C0008151E66E856F000EE66E851B8551E66EE8
:1002D00040EC00F0ABEF04F0EE50030E916FEE181F
:1002E000D8A45DEF04F014EC06F0EE50956FEE50DC
:1002F000946FEE50866FFE0E86618CEF04F0E16A1B
:100300008151E66E856F8651E66E851B87EC06F09F
:100310009651E66E851B944B952B862FF7D71CECD8
:1003200006F08551E66E40EC00F0ABEF04F0EE50C5
:10033000030E916FEE50866F020E86655DEF04F03E
:10034000EE50956FEE50946F020E865F14EC06F03F
:10035000EE50966F96EC06F0944B952B862FF8D7BF
:100360001CEC06F0E16A8151E66E856F000EE66EC8
:10037000851B8551E66E40EC00F0ABEF04F0EE50CB
:10038000820E916FEE18D8A45DEF04F0EE50E00BF2
:10039000D8A490EF04F0EE507F0BD8A494EF04F0B3
:1003A000020EE96E600EEF2696EC08F040EC00F0CD
:1003B000ABEF04F0EE50010E916FEE18D8A45DEF94
:1003C00004F0EE50876F916BD8908737D8B0918347
:1003D000D8908737D8B09181EA0E8727D8B0912B73
:1003E000030E9125FA6E8751F96E74EF04F0F5EF64
:1003F00003F0FBEF03F001EF04F007EF04F074EFFC
:1004000004F074EF04F074EF04F074EF04F074EF90
:1004100004F074EF04F074EF04F074EF04F074EF80
:1004200004F074EF04F074EF04F074EF04F074EF70
:1004300004F074EF04F074EF04F074EF04F074EF60
:1007E00004F074EF04F074EF04F03BEC06F00CEC52
:1007F00004F0ABEF04F02FEC06F00CEC04F0ABEFE0
:1008000004F049EC06F00CEC04F0ABEF04F00CEC57
:1008100004F0ACA2FED7FF00E16A090EE66E856F18
:10082000010EE66E851B020EE96EEF50E66E851B2B
:100830008551E66E40EC00F01200E16A800EE66E33
:10084000856F030EE66E851B000EE66E851B010E9E
:10085000E66E851B8351E66E851B8551E66E40EC86
:1008600000F0ABEF04F0E16A810EE66E856F030ED7
:10087000E66E851B000EE66E851B020EE66E851B7E
:100880008151E66E851B8551E66E40EC00F0ABEFC2
:1008900004F0E16A8151E88CE66E856F020EE66E27
:1008A000851B000EE66E851B030EE66E851B8551CB
:1008B000E66E40EC00F0ABEF04F0E16A8151E88CA9
:1008C000E66E856F030EE66E851B000EE66E851BD9
:1008D000040EE66E851B9151E66E851B8551E66E12
:1008E00040EC00F0ABEF04F0E16A490EE66E856F74
:1008F000030EE66E851B000EE66E851B090EE66E86
:10090000851B020EE96EEF50E66E851B8551E66E83
:1009100040EC00F0ABEF04F0050E916F98EF04F09F
:10092000060E916F98EF04F0070E916F98EF04F0A8
:10093000E16A8151E88CE66E856F020EE66E851BDA
:10094000000EE66E851B9151E66E8519E66E40EC51
:1009500000F0ABEF04F0E96A846B806B12008B82CD
:100960009492949A94969488000EC76E300EC66E38
:100970008A6B060ED56E1200100E886FF0EC05F033
:10098000882FFCD78B92400E8B6F8C6B8D6B8E6B90
:100990008F6BB2EC05F069EC05F0F2B40AEF05F0EC
:1009A000F0EC05F0D59E010AD8A4F7D7480E8B6F5E
:1009B0008F6B8E6B010E8D6FAA0E8C6FB2EC05F0F3
:1009C00069EC05F0A9EC05F0D59E8A91E8B40DD04C
:1009D000F0EC05F0F0EC05F0F0EC05F0010A2AE18E
:1009E000F0EC05F0AA0A26E18A8169EC05F0E90E2F
:1009F0008B6F000E8AB1400E8F6F8E6B8D6B8C6B80
:100A0000B2EC05F0A9EC05F0010AF1E08A85D59E6B
:100A10008B8212008AB70BD0FF0A906FD96A030E3F
:100A2000DA6E540EDE6E8B51DE6E9051DE6E8A836E
:100A30008B8212008AB70AD0906FD96A030EDA6EE1
:100A4000450EDE6E8B51DE6E9051DE6E8A838B8298
:100A500012008B92490E8B6F8F6B8E6B8D6B8C6B34
:100A6000B2EC05F069EC05F0A9EC05F0D59E000AA2
:100A7000E1E169EC05F0A9EC05F0D59EFE0ADAE1AA
:100A8000100E886FF0EC05F0DE6E882FFBD78B829E
:100A900012008B924A0E8B6F8F6B8E6B8D6B8C6BF3
:100AA000B2EC05F069EC05F0A9EC05F0D59E000A62
:100AB000C1E169EC05F0A9EC05F0D59EFE0ABAE1AA
:100AC000100E886FF0EC05F0DE6E882FFBD78B825E
:100AD0001200D76AD66AD58EF29412008B92510E0C
:100AE0008B6FB2EC05F069EC05F0A9EC05F0D59E32
:100AF000000AA0E169EC05F0A9EC05F0D59EFE0A1C
:100B0000FBE1010E886F020E896FF0EC05F0DE6EDE
:100B10008807D8B0FAD78907D8B0F7D78B821200E8
:100B200081B814D0060E8A15D8A412008AB704D052
:100B300069EC05F08A871200F2B401D01200D59E4C
:100B4000BCEC04F08AB58A9E8A9712008A6B8A8E62
:100B50001200F2B40AEF05F0F0EC05F0FF0AF9E03C
:100B6000FF0A12008BBFCCEC05F0F0EC05F08B51C6
:100B70007F0BF5EC05F08F51F5EC05F08E51F5EC9F
:100B800005F08D51F5EC05F08C51F5EC05F0E7EC36
:100B900005F0F5EC05F01200F0EC05F0770EF5EC41
:100BA00005F0000EF5EC05F0000EF5EC05F0000E7A
:100BB000F5EC05F0000EF5EC05F0010EF5EC05F096
:100BC000A9EC05F07E0BD8A41AEF05F01200400E38
:100BD0008B19D8B4950C480E8B19D8B4870C010C1E
:100BE000C968C7A0FED7C9501200C96EC7A0FED7FA
:100BF000C95012009251A96E9351A86EA69EA69C50
:100C0000A684F29E550EA76EAA0EA76EA682A6B265
:100C1000FED7F28EA69412009251A96EA69EA69CB3
:100C2000A680A850936F12009751986F000A01E0B8
:100C300012002FEC06F012009751981901E11200F2
:100C400098B129EF06F098B32CEF06F049EC06F0C6
:100C500012003BEC06F012002FEC06F012008ACFD7
:100C60009AF093CF9BF0899282B0FED7020E976FD5
:100C70004DEC06F012008990C00E9A6F1F0E9B6F0C
:100C80009C6B9D6B9E6B0000010E976F4DEC06F008
:100C90001200976B58EC06F012009D9E936AEC0EC2
:100CA0009616FF0E8D6ED00E92163C0E8912120013
:100CB0009AC08AFF9BC093FF170E96128968CC0ECC
:100CC000926E9E9E9D8E120095518A6E899A9451C5
:100CD000898A8A6E000089968D90000080A8FED7D0
:100CE00083508D808986966F120095518A6E899AFD
:100CF0009451898A8A6E96518C6E956A89968D92E6
:100D0000000080A8FED78D828986956812009551D3
:100D10008A6E899A9451898A8A6E89948D9080A866
:100D2000FED783508D808984966F120095518A6E0C
:100D3000899A9451898A8A6E96518C6E956A8994A3
:100D40008D9280A8FED78D828984956812009EB10D
:100D500047D09EB504D09EB319D096BE17D096BE8C
:100D6000F0EF06F08A8C9E85EDEC07F0000AD8B40F
:100D7000C1EF06F0DE50836E9C4F9D078A9C9E9EBD
:100D800012009E959E939E9E8A9A120096AE28D03F
:100D90008A8A9EB316D0030EDA6ED96A8350DE6E4D
:100DA000F76AE844EC0FD8B0F72AF66E0F0EF72674
:100DB000F86A0900F5CF9CF00800F5CF9DF09E83FE
:100DC00002D08350DE6EEDEC07F0000A05E09C4F88
:100DD0009D079E9E8A9A12009E939E819E9E12005F
:100DE0009E9E12009EA11200030EDA6ED96A0E0EAC
:100DF000FA6EDF503F0BE844E844020FD8B0FA2AFD
:100E0000F96E81EF07F081EF07F081EF07F081EFD6
:100E100007F081EF07F081EF07F081EF07F081EF36
:100E200007F081EF07F081EF07F094EF07F087EF0D
:100E300007F081EF07F081EF07F081EF07F081EF16
:100E400007F081EF07F081EF07F081EF07F081EF06
:100E500007F081EF07F081EF07F081EF07F081EFF6
:100E600007F081EF07F081EF07F081EF07F081EFE6
:100E700007F081EF07F081EF07F081EF07F081EFD6
:100E800007F0C2EF07F0D7EF07F0A2EF07F081EF0E
:100E900007F081EF07F081EF07F081EF07F081EFB6
:100EA00007F081EF07F081EF07F081EF07F081EFA6
:100EB00007F081EF07F081EF07F081EF07F081EF96
:100EC00007F081EF07F081EF07F081EF07F081EF86
:100ED00007F081EF07F081EF07F081EF07F081EF76
:100EE00007F081EF07F081EF07F081EF07F081EF66
:100EF00007F081EF07F081EF07F081EF07F0ECEFEB
:100F000007F09E919E959E938A9A8A8C1200D92A08
:100F1000DECF92F0DECF93F0FAEC05F09E919E9535
:100F20009E938A8C8A9A1200D92ADECF92F00CEC1A
:100F300006F0836E9C6B9D6B9E919E939E858A8A24
:100F40008A9C1200D92ADECF8CF0DECF8DF0DECF66
:100F50008EF0DECF8FF0030EDA6ED96A4F0EDE6EA2
:100F60006EEC05F0030E9D6F030E9C6FD96A030EA5
:100F7000DA6EDE50836E9C079E919E939E858A9CBE
:100F80008A8A1200030EDA6ED96A4F0EDE6E49ECC1
:100F900005F0110E9C6F010E9D6FD96ADE50836EB5
:100FA0009C079E919E939E858A9C8A8A1200030EBE
:100FB000DA6ED96A4F0EDE6E29EC05F0110E9C6FC9
:100FC000010E9D6FD96ADE50836E9C079E919E93A1
:100FD0009E858A9C8A8A1200FF009D51000AD8A42F
:100FE000FF0C9C51000AD8A4FF0C000C000000006C
:100FF00000000000000000000000000000000000F1
:1010000001010201000000000000000000000000DB
:1010100000000000000000000000000000000000D0
:1010200000000000000000000000000000000000C0
:1010300004010000000000000000000000000000AB
:1010400000000000000000000000000000000000A0
:101050000000000000000000000000000000000090
:10106000000000000000000000000000010E926F70
:101070000CEC06F0100EA16F9351030BE844E8440A
:10108000900FD8B0A12BA26FA151FA6EA251F96EA8
:1010900050EF08F05AEF08F064EF08F06EEF08F038
:1010A000270ECB6E0C0EBD6E140EBE6E9494040E05
:1010B000CA6E1200030ECB6E0C0EBD6E020EBE6E1B
:1010C0009494040ECA6E1200020ECB6E2C0EBD6EEE
:1010D000010EBE6E9494040ECA6E1200010ECB6E09
:1010E0000C0EBD6E010EBE6E9494040ECA6E1200FC
:1010F00014EC06F0F86A600EF76EF66A800EA66EC3
:10110000956B946B0900F5CF96F096EC06F0943F42
:10111000F9D7952B9551010A06E095519F0AF2E106
:101120001CEC06F01200800E956FECD7F86AEE50BA
:10113000F76EEE50F66EA081A68EA69CA684A688B9
:10114000F29E550EA76EAA0EA76EA682F28E0A0018
:10115000A083200E9F6FEE50F56E0F009F2FFBD7E0
:10116000A68EA69CA684F29E550EA76EAA0EA76E0A
:10117000A682F28EA694A0A302D0A093EAD7A0A143
:10118000C6EF08F0A09109009CEF08F0A085010EC1
:10119000EA6E020EE96EF86AEE50F76EEE50F66EE9
:1011A000800E9F6FEE500900F518D8A4A0959F2FD0
:1011B000F9D7A0A50AD0020EE26EE16A080EE66E2B
:1011C000000EE66E080EE66E1200020EE26EE16A96
:1011D0009F6B480EE66E9F1B020EE66E9F1B000E75
:1011E000E66E9F1B080EE66E9F1B9F51E66E120077
:10600000C3908F00000000000000000000000000AE
:106010000000000000000000000000000000000080
:106020000000000000000000000000000000000070
:106030000000000000000000F5C5D5E5DB06CB47F9
:10604000CA6C00CB4FCA5500CB67CA7200CB6FCD6C
:10605000498FC38600DB0332A199324A81214A81EC
:106060003E02CD0A813E20D305C38600CD8081C388
:106070008600DB02324A81214A813E02CD0A813EFE
:1060800020D305C38600E1D1C1F1FBED4D00000036
:10609000000390D00300A0252600D5DC3200404B41
:1060A0004C000000000000000000000000000000A4
:1060B00000000000000000000000000000000000E0
:1060C00000000000000000000000000000000000D0
:1060D00000000000000000000000000000000000C0
:1060E00000000000000000000000000000000000B0
:1060F00000000000000000000000000000000000A0
:10610000CDEB80F376F332A500D306FBC9F3C52FA0
:10611000473AA500A032A500D306C1FBC9F3C54785
:106120003AA500B032A500D306C1FBC9F53E0BCDA0
:10613000698078CD6980F1CD6980C93E0ACD6980DA
:1061400078CD6980CD4880C9C53A7283C602473A86
:106150007283A8280ADB08CB4F20F4C1DB02C9E513
:1061600021A299CDEB80E1C1C9F5DB08CB4720FA2C
:10617000F1D302C93E3FCD6980F37606FF0EFF16CC
:10618000203A9D99EE01D301329D9910FE0D20FB1E
:106190001520F8C37B803E00D304C93E10D304C948
:1061A000E607C620F608D304C93E20D304DB04C9A1
:1061B000F53E30F608D304F1D304C93E30D304DBF6
:1061C00004C9F53E40F608D304F1D304C93E40D3D8
:1061D00004DB04C9E607C660D304C9E607C650D38A
:1061E00004C9E603C650F608D304C97EEE00C8D33E
:1061F0000523C3EB80EE0020023E043DE6033CCDC8
:10620000FC8521988678CD0A81C9C5D5E547E6FE8B
:106210000FCB4020013D853001246F7ECB40280309
:106220002B18040F0F0F0F113A81E60F8330011462
:106230005F1AD30510E5E1D1C1C9303132333435AD
:1062400036373839414243444546000000000000DB
:10625000000000003E80D3013E00D301063C10FE4A
:10626000C9C547DB01E61028FA78D300C93E07D339
:106270001E3EC0D311D313D315D3173E08D31CC968
:10628000DB1DCB5FC8CD90813A72833C327283C9EB
:10629000DB1ECBDFD31EDB10326A83DB12326B8353
:1062A000DB14E67F326C83DB16326D83DB19326ED2
:1062B00083DB1A326F833E20327083DB18327183A6
:1062C000DB1ECB9FD31EC9DB1ECBDFD31EC9DB1E5B
:1062D000CB9FD31EC9CDC781DB1A3C27D31ACDCEA5
:1062E00081CD9081CDC7813A6D831856CDC781DBB2
:1062F0001A3D27D31ACDCE81CD9081CDC7813A6D7D
:1063000083183FCDC781DB193C271807CDC781DB38
:10631000193D27280A47D613FA21820601180206DA
:106320001278D319CDCE81CD9081CDC7813A6D83BE
:106330001810CDC781DB163C271807CDC781DB16A7
:106340003D2747DB19EE022827EE023D2196838583
:106350003001246F78EE0028093D96FA6382060129
:1063600018014678D316CDCE81CD9081CD0083C95A
:106370003A6F83CDAF83219783E60320D721A28391
:1063800018D2CDC781DB143C27180FCDC781DB1491
:10639000EE0028043D2718023E2347D624FAA282A5
:1063A000060078D314CDCE81CD9081C9CDC781DBD5
:1063B000123C27180FCDC781DB12EE0028043D27C1
:1063C00018023E5947D660FACC82060078D312CD27
:1063D000CE81CD9081C9CDC781DB103C27180FCD70
:1063E000C781DB10EE0028043D2718023E5947D62E
:1063F00060FAF682060078D310CDCE81CD9081C9A7
:10640000CDC78106063A6F83CDAF8380473A6F834D
:10641000CDAF83E6FC0F0F804721A3833A6E833D07
:10642000853001246F7E80473A6D83CDAF838047EE
:106430003A6E83D603F243833A6F83CDAF83E6038C
:10644000200105780607CDC1833CD318CDCE81CD80
:106450009081C9EE0020033A7183E6073DCB27CB3C
:1064600027217A83853001246FC9000000000000D5
:106470000000000000000000000053756E004D6F2A
:106480006E00547565005765640054687500467267
:10649000690053617400312831303130313130318D
:1064A000303129000303060104060205000305C577
:1064B0004FE6F00F470F0F0F87804779E60F80C137
:1064C000C9D5E5604F78EE00C816011E0014CB2038
:1064D00030FB780FF680477990380628114F7A8381
:1064E0005F157AEE012805CB087918EC791D4B442D
:1064F000E1D1C9F53E01CDFB83F1C9C5E54F0604E5
:1065000021938637CB7E20013F7E1F772B10FA0D1B
:1065100020ECE1C1C9F53E01CD1D84F1C9C5E54FAF
:106520000604219086373F7E17772310FA0D20F05E
:10653000E1C1C9E5219486180AE52198861804E589
:10654000219086F5C5DDE5FDE53E000E000604DD83
:10655000219086FD219486DD860030010CFD8600A9
:1065600030010C77DD23FD2323790E0010E93AA0DA
:1065700086E6FCB12B2B2B2BCDE48532A086FDE1EA
:10658000DDE1C1F1E1C9E5219486180AE52198868B
:106590001804E5219086F5C5DDE5FDE53E00373FB1
:1065A0000E000604DD219086FD219486DD7E00FD2F
:1065B0009E0077DD23FD232310F23AA086E6FC300F
:1065C00002F6012B2B2B2BCDE48532A086FDE1DDDD
:1065D000E1C1F1E1C9E5D5C5210000229E86229ADC
:1065E00086229886210100229C86AF3A9786CB7F2F
:1065F000203D3A9C8617329C863A9D8617329D86AE
:106600003A9E8617329E863A9F8617329F86DAA474
:10661000853A9486173294863A9586173295863A4B
:106620009686173296863A97861732978618BC2A2E
:106630009086ED5B9486ED52EB2A9286ED4B968622
:10664000ED42381E229286ED5390862A9C86ED5BA1
:106650009886192298862A9E86ED5B9A86ED5A22A4
:106660009A86AF3A9F861F329F863A9E861F329E39
:10667000863A9D861F329D863A9C861F329C8638BC
:106680001E3A97861F3297863A96861F3296863A2A
:1066900095861F3295863A94861F3294861890C14B
:1066A000D1E1AFC93A9786CB7F281A2A90862298E3
:1066B000862A9286229A862100002290862292863D
:1066C000C1D1E1AFC921FFFF229086229286229894
:1066D00086229A86C1D1E13EFF37C9F5C50108007F
:1066E0003E001807F5C50104003E00EDA12008EAB0
:1066F000EB85C1F1F602C9C1F1E6FDC9C5DDE5478B
:106700003E04904FDD2194867EDD7700DD2323104B
:10671000F73E00A9280A413E00DD7700DD2310F98D
:106720003E000608DD7700DD2310F906202194865F
:10673000C5E506097E17772310FAE1C1C5E578EEB5
:1067400001CA88863E04853001246F06057EE60F67
:10675000D605FA6986E5C53E038677300A23052803
:10676000067EC6017718F4C1E17EE6F0D650FA85C0
:1067700086E5C53E308677300A230528067EC601A9
:106780007718F4C1E12310C5E1C110A4DDE1C1C94E
:1067900000000000000000000000000000000000F9
:1067A000003E20CD6980CD488021468ACDEB80CD4A
:1067B0004880324A81214A813E02CD0A813E0AD375
:1067C0000521598ACDEB80CD4880D305CD4880D3B3
:1067D000053E0AD305216C8ACDEB80CD4880D305D8
:1067E000CD4880D305CD4880D305CD4880D305CD95
:1067F0004880D3053E0AD305217F8ACDEB80CD4862
:1068000080324A813E02214A81CD0A813E0AD30567
:1068100021928ACDEB80CD4880324D81CD488032A7
:106820004C81CD4880324B81CD4880324A81214A0B
:10683000813E08CD0A813E0AD30521A58ACDEB8091
:10684000CD4880E60F4FCD4880324A81E6F0B1074F
:10685000070707324B813A4A81E60F324A813E01EF
:106860000602214B81CDF5803E20D3053E01060274
:10687000214A81CDF5803E0AD305CD4880C93A5ED4
:106880008B3290863A5F8B3291863A608B32928659
:106890003E003293863E03CDFB8321BA8ACDEB8046
:1068A0002190863E030605CDF5803E0AD305C93EFC
:1068B00021CD6980CD4880CD4880CB77C26E883AA3
:1068C0005B8BE6FE325B8BCD4880CD4880CD488027
:1068D000CD4880CD4880E60F32618BCD4880E603FD
:1068E00007074FCD4880073002CBC9073002CBC124
:1068F000E67C57CD4880E6C00707B2325D8B79321F
:106900005E8BCD4880E603074FCD4880E6802802A5
:10691000CBC179C60232608B4F3A5D8B3290863A9A
:106920005E8B3291863E0032928632938632978613
:106930003296863295863E01329486CD3F843A6106
:106940008B81D609CD1D843A9086325D8B3A918633
:10695000325E8B3A9286325F8B3E0032608BCD483E
:1069600080CD4880CD4880CD4880CD4880C93A5BF5
:106970008BF601325B8BCD4880CD4880CD4880CDF1
:106980004880CD4880E60F32618BCD4880CD48806D
:10699000E63F329286CD4880329186CD4880329053
:1069A000863E003293863297863296863295863EB0
:1069B00001329486CD3F843E02CD1D843E00325D7F
:1069C0008B3A9086325E8B3A9186325F8B3A928612
:1069D00032608BCD4880CD4880CD4880CD4880CD79
:1069E0004880CD4880C9E5F5C521628B3A5B8BE6CE
:1069F00001201EAF32668B373F3A628B1732678BAE
:106A00003A638B1732688B3A648B1732698B216635
:106A10008B3E22CD698006047ECD69802310F9CD9E
:106A20004880325C8B010002CD8489CD4880CD48FE
:106A3000803A5C8BFE4F2805C1F1E137C9C1F1E115
:106A4000373FC921378BCDEB8021628B3E08CD0AC1
:106A5000813E0AD30521007E3A5C8BFE45CA9689A9
:106A6000FE54CAB7890100023E02CD0A813E20D3FE
:106A700005230B3E1FA120043E0AD305AFA820E842
:106A8000A920E5C921007ECD488077230B3E00A8D0
:106A900020F5A920F2C921CB8ACDEB8021017E3ED1
:106AA00002CD0A8121E88ACDEB8021027E3E02CD13
:106AB0000A813E0AD305C921F48ACDEB8021017EEB
:106AC0003E02CD0A8121128BCDEB8021027E3E0257
:106AD000CD0A813E0AD305C921238BCDEB80C9DDC8
:106AE00021007EDDE5E17EEE00C8EEE5282EDD7EAC
:106AF0000BFE0F282706087ED3052310FA3E2ED35F
:106B00000506037ED3052310FA3E20D3051111009C
:106B100019060A3E04CDF5803E0AD305112000DD9A
:106B200019DDE5E1110080373FED5220B6CDF58D3E
:106B3000D2DF893A5C8BFE00C8FE54CAB789FE4595
:106B4000CA9689C3D8894D616E7566616374757222
:106B500065722049443A2020004F454D2049443A6F
:106B600020202020202020202020200050726F6430
:106B7000756374204E616D653A20202020200050FE
:106B8000726F64756374205265766973696F6E3ACB
:106B9000200050726F647563742053657269616C74
:106BA0003A202020004D616E7566616374757265D0
:106BB00020446174653A203230004469736B20537D
:106BC000697A6520284D42293A20004469736B2078
:106BD000636F6D6D616E64206572726F722C2043FD
:106BE0006F6D6D616E6420002C20526573706F6E46
:106BF000736520004469736B206163636573732060
:106C000074696D656F75742C20436F6D6D616E6472
:106C100020002C204C61737420526573706F6E736A
:106C2000652000556E6B6E6F776E206469736B2004
:106C30006572726F720A004C6F6164696E672062E0
:106C40006C6F636B200063616C6C696E672E2E2E17
:106C5000200072657475726E6564000000000000AB
:106C60000000000000000000000000000000000024
:106C7000000000000000000000E5D5C5F5CDE68865
:106C8000DA068D3A0D7E32388F2A0E7E22438F3AF5
:106C9000107E323E8F2A117E7C0F0F0F0F57E6F0C9
:106CA0005F7AE60F577DE6F00F0F0F0FB35F7DE6BB
:106CB0000F280113ED532C8F110000ED532E8F2A56
:106CC000137E22458F21000022478F2A167E223F05
:106CD0008F21000022418F21458F3E00EDA1201021
:106CE000EDA1200C2A207E22458F2A227E22478F6A
:106CF00021010022398F210000323B8F3E00323DBE
:106D00008F3AA300EE06CA298C2A247E223F8F2ABE
:106D1000267E22418F3A287EE60F323D8F2A2C7E36
:106D200022398F2A2E7E223B8F2A438F2290862162
:106D300000002292862A628B2294862A648B2296F5
:106D400086CD3F842A3F8F2294862A418F229686C1
:106D50003A3D8FFE00280647CD3F8410FB2A9086DF
:106D600022288F2A9286222A8F3A3D8F473A3E8FD9
:106D70009047CD3F8410FB3AA300FE06201B2A90CB
:106D80008622308F2A928622328F2A2C8F22948656
:106D90002A2E8F229686CD3F843A388F6F2600297F
:106DA000ED5B9086EB373FED5222348F1100002AC5
:106DB0009286ED5222368F2A348F2290862A368F81
:106DC0002292862A628B2294862A648B229686CD12
:106DD00086842A458F2290862A478F229286CD92DA
:106DE000843A388F6F2600229486210000229686EE
:106DF000CDD5842A988622248F2A9A8622268FF13E
:106E0000C1D1E1373FC9F1C1D1E137C9E5D5C5F5F8
:106E10003AA300EE0628423E0021198F010300ED3F
:106E2000A12010EA1F8D3A188FFE00CAEB8DFE01DB
:106E3000CAEB8D2A188F2294862A1A8F2296862AC8
:106E4000248F2290862A268F229286CD92843AA081
:106E500086CB47C2EB8DC3988DAF21198FEDA9204A
:106E600009BECAEB8D3E01BE280EED5B188F2A24A9
:106E70008FED523876C3988D2A308F221C8FED5BB0
:106E80002C8F1922208F2A328F221E8FED5B2E8F9E
:106E9000ED5A22228FC3D78D2A188F229486210083
:106EA000002296862A348F2290862A368F22928656
:106EB0003A388F47CD3F8410FB2A9086221C8F3AA8
:106EC000388F5F16001B1922208F2A9286221E8F70
:106ED0001E00ED5A22208F2A1C8F22628B2A1E8FC1
:106EE00022648BF1C1D1E1CDE688C9AF325C8BF170
:106EF000C1D1E137C9E5D5C5F5110000372A1C8F8E
:106F0000ED5A221C8F2A1E8FED5A221E8F373FED1D
:106F10005B1C8F2A208FED52ED5B1E8F2A228FED96
:106F200052DA3C8E2A1C8F22628B2A1E8F22648B9F
:106F3000F1C1D1E1CDE688C9E5D5C5F53AA300EEAA
:106F40000628552A288F2294862A2A8F2294862A58
:106F5000188F2290862A1A8F2292863E07CDFB83B5
:106F6000CD3F842A908622628B2A928622648BCD22
:106F7000E68821007E3A188FE67F07175F3E0017EC
:106F800057197E32188F237E32198F237E321A8F43
:106F9000237E321B8FC3108D2A288F2294862A2AA3
:106FA0008F2294862A198F22908626003A1B8F6F93
:106FB000229086CD3F842A908622628B2A92862256
:106FC000648BCDE68821007E3A188F373F175F3EED
:106FD00000175719AF321B8F321A8F7E32198F2349
:106FE0007E32188FC3108D21398F3E08CD0A813E25
:106FF00020D30521388F3E02CD0A813E20D30521C2
:10700000348F3E08CD0A813E20D305212C8F3E08C7
:10701000CD0A813E0AD305C900000000000000002F
:107020000000000000000000000000000000000060
:107030000000000000000000000000000000000050
:10704000000000000000000000C9DB08CB7F20FA30
:10705000DB07C9F5DB08CB7F2808CB7720F6F1D317
:1070600007C9DB0718EE0000000000000120424FB6
:107070004F542E5A38420D0B20000000030D0E20F5
:10708000424F4F542E5A38420D2820000000000D68
:1070900001002021FFFF7C77373FED423E1FACCA45
:1070A000A58FC3968F21FFFF7EACCABA8F373FED05
:1070B000423E1FACCABA8FC3A88F228D00210000A8
:1070C000228F0021FF1FF9CD54810601CD3B80E6C0
:1070D000033291000600CD3B80E60332A200DB08BC
:1070E000CB6F20FACD9680216093CDEB802A8D0066
:1070F00023224A81214A813E020605CDF580218165
:1071000093224A81CDEB80CD6D813EFECD0580ED91
:1071100056FB213D93DB08CB5FC200803A7283C6E9
:10712000024F211D933A7283A9CA0080DB08CB6706
:1071300020F33EE0D303C367903A7283C6064F3A0A
:107140007283A92822F33E00D306DB06CB4F280822
:107150003AA500D306FB18E7DB03EE7F20F23AA541
:1071600000D306FBC3C094CD7690CD7791C37B80CE
:1071700021F293C30080DB08CB57C2AE90CDAF871E
:10718000AF32628B32638B32648B32658BCDE68893
:10719000DA2191060421C27F7EFE062818FE0B2804
:1071A000141110001910F121A693CDEB80C921C450
:1071B00093CDEB80C932A3000104000911628BED6D
:1071C000B0CD798BDA21912A398F22188F2A3B8F03
:1071D000221A8FCD0C8DDA219121007EE5FDE17E12
:1071E000FEE5CA0591FE00CA1A91DD213F94010B0C
:1071F00000DD23DD7E00EDA1200BEAF1903E0FBE05
:107200002803C33491FDE5E111200019CB4C28CCB3
:10721000CDF58D380521007E18C2214B94CDEB8031
:10722000C9212394CDEB80215C8B3E02CD0A813EA7
:107230000AD305C9210000221A8FFD7E1A32188F49
:10724000FD7E1B32198F3AA300FE06280CFD7E142A
:10725000321A8FFD7E15321B8FCD0C8DDA21913ABB
:10726000007EFE02C270913A017E47CDF58D10FB83
:10727000217694CDEB80C93A7283C603473A728374
:10728000B8280BDB08CB7FC27D91DB0718EF3E539C
:10729000D305CD538F3E43D305CD538F3E53D305F6
:1072A000CD538F3E0DD305CD538FCD4A8FD305FEE1
:1072B0003EC21293CD4A8FFE0DC212933E91D3056A
:1072C000CD538F3E0DD305CD538FCD4A8FD305FEC1
:1072D0003EC21293CD4A8FFE0DC21293060D216C51
:1072E0008F7E23D305CD538F10F7CD4A8FFE0DC26D
:1072F0001293CD4A8FFE42C21293CD4A8FFE4FC2E7
:107300001293CD4A8FFE4FC21293CD4A8FFE54C2C4
:107310001293CD4A8FFE2EC21293CD4A8FFE5AC2CF
:107320001293CD4A8FFE38C21293CD4A8FFE42C2CD
:107330001293CD4A8FFE20C21293CD4A8F326B8FAB
:10734000CD4A8F326A8FCD4A8F32698FCD4A8F32C4
:10735000688FCD4A8FCD4A8F217E8F060B7ECD530D
:107360008F10FACD4A8FFE0DC21293CD4A8FFE3E8A
:10737000C2129321778F06077ECD538F10FACD4A24
:107380008FFE02C27091CD9B8021B494CDEB80CD55
:107390004A8F57CD4A8F5FED539486210000229685
:1073A000862A688F2290862A6A8F229286CD9284BE
:1073B000ED4B9086210080229486CD92843AA0865F
:1073C000CB47C2C89201008079327C8F328E8F7891
:1073D000327B8F328D8FC521898F06077ECD538FEB
:1073E00010FACD4A8FFE3EC21293CD4A8FFE0DC2D7
:1073F0001293F321778F06077ECD538F10FAC121A8
:107400000000CD4A8F77230BAF8020F68120F3C395
:107410000000D305DB08CB7FC0DB0718F50A455217
:10742000524F523A204B6579626F617264204E6F01
:10743000742044657465637465642E0A000A4552BD
:10744000524F523A204B6579626F61726420636FCC
:107450006E74726F6C6C6572206572726F720A0066
:107460005A38302050726F6A656374204D61726BB8
:1074700020323A20426F6F74696E670A52414D2084
:10748000002062797465730A0A5072657373204430
:10749000454C45544520746F20656E7465722073A9
:1074A000657475700A004E6F20626F6F7461626C54
:1074B0006520706172746974696F6E73206F6E20DD
:1074C00053440A004E6F2053442063617264206964
:1074D0006E7365727465640A00436F6E74656E74D2
:1074E00073206F6620726F6F7420666F6C646572B4
:1074F0000A004E6F204F5320666F756E642C206912
:107500006E736572742073797374656D206469732A
:107510006B20616E64207072657373205245534511
:10752000540A00556E6B6E6F776E206572726F72C3
:1075300020696E204641542064726976657220008D
:10754000424F4F54202020205A38424E6F204B6526
:10755000726E656C20666F756E642E0A00466F75DC
:107560006E64206120626F6F7461626C65204B6590
:10757000726E656C0A00546865206B65726E656C8E
:10758000206F6E2074686973206469736B2069735F
:10759000206E6F7420636F6D70617469626C65201A
:1075A00077697468207468652068617264776172B5
:1075B000652E0A00426F6F74696E672E2E2E0A00C8
:1075C000CD9B80217B97CDEB80CD4796CD7896CD16
:1075D0002F973AA199EEA5282F3AA199EEA4283D1C
:1075E0003AA199EEA628503AA199EEA728533AA1BC
:1075F00099EE8BCA4D973AA199EE8ACA65973AA13E
:1076000099EE80CA789718503E0032A1993A3C9979
:107610003C323C99EE082040323C99183B3E003207
:10762000A1993A3C99EE0028063D323C9918293E32
:10763000083D323C9918213E0032A19921559918F4
:10764000083E0032A1992165993A3C99CB278530B3
:1076500001246F5E2356EBE9CD8F95213D990E00F5
:107660007ECDC280237ECDB0802346233A3C99A9AB
:1076700028043E0018023E01CDA080DB05D3051092
:10768000FA0C3E08A920D93E00CDA080C3CF943E7D
:1076900003CDB0803E04CDC2803E00CD5383CDEB00
:1076A000803E08CDB0803A3C99EE0020053E01CDE9
:1076B000A080216F833E04CD0A813E00CDA0803E94
:1076C0002DD3052B3A3C99EE0120053E01CDA0803B
:1076D0003E02CD0A813E00CDA0803E2DD3052B3A3F
:1076E0003C99EE0220053E01CDA0803E02CD0A81EC
:1076F0003E00CDA0803E20D3052B3A3C99EE0320DE
:10770000053E01CDA0803E02CD0A813E00CDA08085
:107710003E3AD3052B3A3C99EE0420053E01CDA01C
:10772000803E02CD0A813E00CDA0803E3AD3052B9B
:107730003A3C99EE0520053E01CDA0803E02CD0ADF
:10774000813E00CDA080C93E0FCDB0803E06CDC2A7
:10775000803A91001717219200853001246F3E0472
:10776000CDFC85219B863E02CD0A813E2ED305218C
:107770009A863E02CD0A81C93E08CDC2803E0FCD19
:10778000B0803AA200217599CB27853001246F5E25
:107790002356EBCDEB80C9CDD581C35895CD03825F
:1077A000C35895CD3282C35895CD8282C35895CDAA
:1077B000AC82C35895CDD682C358953A91003CEE21
:1077C0000420023E04EE04329100CD4796C3589542
:1077D0003AA2003CEE0420023E04EE0432A200CDA8
:1077E0007896C35895CDEC81C35895CD0C82C3587B
:1077F00095CD3B82C35895CD8B82C35895CDB5822C
:10780000C35895CDDF82C358953A9100EE0020020F
:107810003E043D329100CD4796C358953AA200EE02
:107820000020023E043D32A200CD7896C35895F365
:107830003E00D306DB06CB4F2007DB0332A19918AD
:10784000053E0032A1993AA500D306FBC93E00329D
:10785000A1993E03329100CD47963E0032A200CD61
:107860007896C358953A91000601CD2C803AA20033
:107870000600CD2C80C37897C374809F9090909021
:1078800090909090909090909090909090909090F8
:10789000909090909090909090909E91205A383037
:1078A0002050726F6A656374204D61726B20323AAA
:1078B0002042494F53202020202091912020202039
:1078C00020202020202020202020202020202020B8
:1078D0002020202020202020202091912054696DFC
:1078E000653A202020202020202020202020202039
:1078F0002020202020202020202091912020446F33
:10790000772C20797979792D6D6D2D646420484824
:107910003A4D4D3A53532020202091912020202091
:107920002020202020202020202020202020202057
:1079300020202020202020202020919120436C6FA7
:10794000636B2053706565643A2030302E303020F0
:107950004D487A2020202020202091912020202096
:107960002020202020202020202020202020202017
:1079700020202020202020202020919120426F6F65
:1079800074204F726465723A202053442C20555362
:1079900042202020202020202020919120202020E3
:1079A00020202020202020202020202020202020D7
:1079B0002020202020202020202091959090909021
:1079C00090909090909090909090909090909090B7
:1079D000909090909090909090909491204631301B
:1079E0003D536176652026205175697420204553EA
:1079F000433D43616E63656C202091912046313197
:107A00003D4C6F61642044656661756C7473202021
:107A100020202020202020202020919D90909090B8
:107A20009090909090909090909090909090909056
:107A3000909090909090909090909C0000040804FA
:107A4000040D0204100204130204160204190206B3
:107A50000F05080F0797969D96A396A996AF96B522
:107A600096BB96D096E596EB96F196F796FD960323
:107A70009709971C977D9985998D999599534420DD
:107A80002020202000555342202020200053442C49
:107A900020555342005553422C205344000000000F
:107AA0000000726561642074696D6564206F75748F
:107AB0000A000000000000000000000000000000BC
:107AC00000000000000000000000000000000000B6
:107AD00000000000000000000000000000000000A6
:107AE0000000000000000000000000000000000096
:107AF0000000000000000000000000000000000086
:020000040030CA
:0E000000FF460000FF8181FF0FC00FE00F40A0
:00000001FF
