:020000040000FA
:040000000BEF00F012
:080008009EBA5BEC00F09EBE05
:10001000A7EC06F011000F0EC16E3BEC06F021ECD0
:1000200000F036EC08F0AFEC04F078EC08F049ECA6
:1000300006F090EC05F096EC00F0F2EC06F019EF0B
:1000400000F0846B010EEA6EE96A020EE26EE16A6C
:10005000000E806FC00E9412100EAF6E040EB06EC4
:10006000240EAC6E100EAB6E080EB86EAB8ED08E3A
:100070009E9A9D8AF28E12009EA8FED7AD6E120047
:10008000E16AE6503CEC00F0E6503CEC00F0866F94
:10009000FF0B05E0E6503CEC00F0862FFBD78B9A77
:1000A000E6503CEC00F01200AB98150E3CEC00F072
:1000B000AB88AE501200060EAB14F6E1FC0E8015B4
:1000C000F3E1000EFB6E000EFA6E8051E846E84642
:1000D0006AEF00F0F92673EF00F079EF00F083EF9C
:1000E00000F08AEF00F0AE50816FEE6E836F802BD0
:1000F0001200AE50826FEE6E831B802B000E826367
:100100001200802B1200AE50EE6E831B822F120065
:10011000802B1200AE50EE6E831B05E0831B8483A0
:10012000802BE96A1200802BE96A120080A5120078
:1001300084B31DEF04F0E00E8115D8A433EF04F072
:10014000000EFB6E010EFA6E8151E846E846A9EFFB
:1001500000F0F92649EF04F049EF04F02BEF01F02D
:100160004CEF01F06CEF01F097EF01F0EAEF00F0D7
:100170000BEF01F0BFEF01F0DAEF01F049EF04F00F
:1001800049EF04F049EF04F049EF04F049EF04F0BF
:1001900049EF04F049EF04F049EF04F049EF04F0AF
:1001A00049EF04F049EF04F049EF04F049EF04F09F
:1001B00049EF04F049EF04F049EF04F049EF04F08F
:1001C00049EF04F049EF04F049EF04F049EF04F07F
:1001D00049EF04F0EE50020E916FEE18D8A45DEFD7
:1001E00004F014EC06F0EE50956FEE50946F64EC52
:1001F00006F01CEC06F0E16A8151E66E856F010E97
:10020000E66E851B9651E66E851B8551E66E40ECC9
:1002100000F0ABEF04F0EE50030E916FEE18D8A48F
:100220005DEF04F014EC06F0EE50956FEE50946F15
:10023000EE50966F75EC06F01CEC06F0E16A815109
:10024000E66E856F000EE66E851B8551E66E40EC0E
:1002500000F0ABEF04F0EE50020E916FEE18D8A450
:100260005DEF04F014EC06F0EE50956FEE50946FD5
:1002700087EC06F01CEC06F0E16A8151E66E856FB2
:10028000010EE66E851B9651E66E851B8551E66E66
:1002900040EC00F0ABEF04F0EE50030E916FEE185F
:1002A000D8A45DEF04F014EC06F0EE50956FEE501C
:1002B000946FEE50966F96EC06F01CEC06F0E16A37
:1002C0008151E66E856F000EE66E851B8551E66EE8
:1002D00040EC00F0ABEF04F0EE50030E916FEE181F
:1002E000D8A45DEF04F014EC06F0EE50956FEE50DC
:1002F000946FEE50866FFE0E86618CEF04F0E16A1B
:100300008151E66E856F8651E66E851B87EC06F09F
:100310009651E66E851B944B952B862FF7D71CECD8
:1003200006F08551E66E40EC00F0ABEF04F0EE50C5
:10033000030E916FEE50866F020E86655DEF04F03E
:10034000EE50956FEE50946F020E865F14EC06F03F
:10035000EE50966F96EC06F0944B952B862FF8D7BF
:100360001CEC06F0E16A8151E66E856F000EE66EC8
:10037000851B8551E66E40EC00F0ABEF04F0EE50CB
:10038000820E916FEE18D8A45DEF04F0EE50E00BF2
:10039000D8A490EF04F0EE507F0BD8A494EF04F0B3
:1003A000020EE96E600EEF2690EC08F040EC00F0D3
:1003B000ABEF04F0EE50010E916FEE18D8A45DEF94
:1003C00004F0EE50876F916BD8908737D8B0918347
:1003D000D8908737D8B09181EA0E8727D8B0912B73
:1003E000030E9125FA6E8751F96E74EF04F0F5EF64
:1003F00003F0FBEF03F001EF04F007EF04F074EFFC
:1004000004F074EF04F074EF04F074EF04F074EF90
:1004100004F074EF04F074EF04F074EF04F074EF80
:1004200004F074EF04F074EF04F074EF04F074EF70
:1004300004F074EF04F074EF04F074EF04F074EF60
:1007E00004F074EF04F074EF04F03BEC06F00CEC52
:1007F00004F0ABEF04F02FEC06F00CEC04F0ABEFE0
:1008000004F049EC06F00CEC04F0ABEF04F00CEC57
:1008100004F0ACA2FED7FF00E16A090EE66E856F18
:10082000010EE66E851B020EE96EEF50E66E851B2B
:100830008551E66E40EC00F01200E16A800EE66E33
:10084000856F030EE66E851B000EE66E851B010E9E
:10085000E66E851B8351E66E851B8551E66E40EC86
:1008600000F0ABEF04F0E16A810EE66E856F030ED7
:10087000E66E851B000EE66E851B020EE66E851B7E
:100880008151E66E851B8551E66E40EC00F0ABEFC2
:1008900004F0E16A8151E88CE66E856F020EE66E27
:1008A000851B000EE66E851B030EE66E851B8551CB
:1008B000E66E40EC00F0ABEF04F0E16A8151E88CA9
:1008C000E66E856F030EE66E851B000EE66E851BD9
:1008D000040EE66E851B9151E66E851B8551E66E12
:1008E00040EC00F0ABEF04F0E16A490EE66E856F74
:1008F000030EE66E851B000EE66E851B090EE66E86
:10090000851B020EE96EEF50E66E851B8551E66E83
:1009100040EC00F0ABEF04F0050E916F98EF04F09F
:10092000060E916F98EF04F0070E916F98EF04F0A8
:10093000E16A8151E88CE66E856F020EE66E851BDA
:10094000000EE66E851B9151E66E8519E66E40EC51
:1009500000F0ABEF04F0E96A846B806B12008B82CD
:100960009492949A94969488000EC76E300EC66E38
:100970008A6B060ED56E1200100E886FF0EC05F033
:10098000882FFCD78B92400E8B6F8C6B8D6B8E6B90
:100990008F6BB2EC05F069EC05F0F2B40AEF05F0EC
:1009A000F0EC05F0D59E010AD8A4F7D7480E8B6F5E
:1009B0008F6B8E6B010E8D6FAA0E8C6FB2EC05F0F3
:1009C00069EC05F0A9EC05F0D59E8A91E8B40DD04C
:1009D000F0EC05F0F0EC05F0F0EC05F0010A2AE18E
:1009E000F0EC05F0AA0A26E18A8169EC05F0E90E2F
:1009F0008B6F000E8AB1400E8F6F8E6B8D6B8C6B80
:100A0000B2EC05F0A9EC05F0010AF1E08A85D59E6B
:100A10008B8212008AB70BD0FF0A906FD96A030E3F
:100A2000DA6E540EDE6E8B51DE6E9051DE6E8A836E
:100A30008B8212008AB70AD0906FD96A030EDA6EE1
:100A4000450EDE6E8B51DE6E9051DE6E8A838B8298
:100A500012008B92490E8B6F8F6B8E6B8D6B8C6B34
:100A6000B2EC05F069EC05F0A9EC05F0D59E000AA2
:100A7000E1E169EC05F0A9EC05F0D59EFE0ADAE1AA
:100A8000100E886FF0EC05F0DE6E882FFBD78B829E
:100A900012008B924A0E8B6F8F6B8E6B8D6B8C6BF3
:100AA000B2EC05F069EC05F0A9EC05F0D59E000A62
:100AB000C1E169EC05F0A9EC05F0D59EFE0ABAE1AA
:100AC000100E886FF0EC05F0DE6E882FFBD78B825E
:100AD0001200D76AD66AD58EF29412008B92510E0C
:100AE0008B6FB2EC05F069EC05F0A9EC05F0D59E32
:100AF000000AA0E169EC05F0A9EC05F0D59EFE0A1C
:100B0000FBE1010E886F020E896FF0EC05F0DE6EDE
:100B10008807D8B0FAD78907D8B0F7D78B821200E8
:100B200081B814D0060E8A15D8A412008AB704D052
:100B300069EC05F08A871200F2B401D01200D59E4C
:100B4000BCEC04F08AB58A9E8A9712008A6B8A8E62
:100B50001200F2B40AEF05F0F0EC05F0FF0AF9E03C
:100B6000FF0A12008BBFCCEC05F0F0EC05F08B51C6
:100B70007F0BF5EC05F08F51F5EC05F08E51F5EC9F
:100B800005F08D51F5EC05F08C51F5EC05F0E7EC36
:100B900005F0F5EC05F01200F0EC05F0770EF5EC41
:100BA00005F0000EF5EC05F0000EF5EC05F0000E7A
:100BB000F5EC05F0000EF5EC05F0010EF5EC05F096
:100BC000A9EC05F07E0BD8A41AEF05F01200400E38
:100BD0008B19D8B4950C480E8B19D8B4870C010C1E
:100BE000C968C7A0FED7C9501200C96EC7A0FED7FA
:100BF000C95012009251A96E9351A86EA69EA69C50
:100C0000A684F29E550EA76EAA0EA76EA682A6B265
:100C1000FED7F28EA69412009251A96EA69EA69CB3
:100C2000A680A850936F12009751986F000A01E0B8
:100C300012002FEC06F012009751981901E11200F2
:100C400098B129EF06F098B32CEF06F049EC06F0C6
:100C500012003BEC06F012002FEC06F012008ACFD7
:100C60009AF093CF9BF0899282B0FED7020E976FD5
:100C70004DEC06F012008990C00E9A6F1F0E9B6F0C
:100C80009C6B9D6B9E6B0000010E976F4DEC06F008
:100C90001200976B58EC06F012009D9E936AEC0EC2
:100CA0009616FF0E8D6ED00E92163C0E8912120013
:100CB0009AC08AFF9BC093FF170E96128968CC0ECC
:100CC000926E9E9E9D8E120095518A6E899A9451C5
:100CD000898A8A6E000089968D90000080A8FED7D0
:100CE00083508D808986966F120095518A6E899AFD
:100CF0009451898A8A6E96518C6E956A89968D92E6
:100D0000000080A8FED78D828986956812009551D3
:100D10008A6E899A9451898A8A6E89948D9080A866
:100D2000FED783508D808984966F120095518A6E0C
:100D3000899A9451898A8A6E96518C6E956A8994A3
:100D40008D9280A8FED78D828984956812009EB10D
:100D500047D09EB504D09EB319D096BE17D096BE8C
:100D6000F0EF06F08A8C9E85EDEC07F0000AD8B40F
:100D7000C1EF06F0DE50836E9C4F9D078A9C9E9EBD
:100D800012009E959E939E9E8A9A120096AE28D03F
:100D90008A8A9EB316D0030EDA6ED96A8350DE6E4D
:100DA000F76AE844EC0FD8B0F72AF66E0F0EF72674
:100DB000F86A0900F5CF9CF00800F5CF9DF09E83FE
:100DC00002D08350DE6EEDEC07F0000A05E09C4F88
:100DD0009D079E9E8A9A12009E939E819E9E12005F
:100DE0009E9E12009EA11200030EDA6ED96A0E0EAC
:100DF000FA6EDF503F0BE844E844020FD8B0FA2AFD
:100E0000F96E81EF07F081EF07F081EF07F081EFD6
:100E100007F081EF07F081EF07F081EF07F081EF36
:100E200007F081EF07F081EF07F094EF07F087EF0D
:100E300007F081EF07F081EF07F081EF07F081EF16
:100E400007F081EF07F081EF07F081EF07F081EF06
:100E500007F081EF07F081EF07F081EF07F081EFF6
:100E600007F081EF07F081EF07F081EF07F081EFE6
:100E700007F081EF07F081EF07F081EF07F081EFD6
:100E800007F0C2EF07F0D7EF07F0A2EF07F081EF0E
:100E900007F081EF07F081EF07F081EF07F081EFB6
:100EA00007F081EF07F081EF07F081EF07F081EFA6
:100EB00007F081EF07F081EF07F081EF07F081EF96
:100EC00007F081EF07F081EF07F081EF07F081EF86
:100ED00007F081EF07F081EF07F081EF07F081EF76
:100EE00007F081EF07F081EF07F081EF07F081EF66
:100EF00007F081EF07F081EF07F081EF07F0ECEFEB
:100F000007F09E919E959E938A9A8A8C1200D92A08
:100F1000DECF92F0DECF93F0FAEC05F09E919E9535
:100F20009E938A8C8A9A1200D92ADECF92F00CEC1A
:100F300006F0836E9C6B9D6B9E919E939E858A8A24
:100F40008A9C1200D92ADECF8CF0DECF8DF0DECF66
:100F50008EF0DECF8FF0030EDA6ED96A4F0EDE6EA2
:100F60006EEC05F0030E9D6F030E9C6FD96A030EA5
:100F7000DA6EDE50836E9C079E919E939E858A9CBE
:100F80008A8A1200030EDA6ED96A4F0EDE6E49ECC1
:100F900005F0110E9C6F010E9D6FD96ADE50836EB5
:100FA0009C079E919E939E858A9C8A8A1200030EBE
:100FB000DA6ED96A4F0EDE6E29EC05F0110E9C6FC9
:100FC000010E9D6FD96ADE50836E9C079E919E93A1
:100FD0009E858A9C8A8A1200FF009D51000AD8A42F
:100FE000FF0C9C51000AD8A4FF0C000C000000006C
:100FF00000000000000000000000000000000000F1
:1010000001010201000000000000000000000000DB
:1010100000000000000000000000000000000000D0
:1010200000000000000000000000000000000000C0
:1010300004010000000000000000000000000000AB
:1010400000000000000000000000000000000000A0
:101050000000000000000000000000000000000090
:10106000000000000000000000000000010E926F70
:101070000CEC06F0100EA16F9351030BE844E8440A
:10108000900FD8B0A12BA26FA151FA6EA251F96EA8
:1010900050EF08F05AEF08F064EF08F06EEF08F038
:1010A000270ECB6E0C0EBD6E140EBE6E9494040E05
:1010B000CA6E1200030ECB6E0C0EBD6E020EBE6E1B
:1010C0009494040ECA6E1200020ECB6E2C0EBD6EEE
:1010D000010EBE6E9494040ECA6E1200010ECB6E09
:1010E0000C0EBD6E010EBE6E9494040ECA6E1200FC
:1010F00014EC06F0F86A600EF76EF66A800EA66EC3
:10110000956B946B0900F5CF96F096EC06F0943F42
:10111000F9D7952B9551200AF5E11CEC06F0120049
:10112000F86AEE50F76EEE50F66EA081A68EA69C81
:10113000A684A688F29E550EA76EAA0EA76EA6825A
:10114000F28E0A00A083200E9F6FEE50F56E0F0006
:101150009F2FFBD7A68EA69CA684F29E550EA76E47
:10116000AA0EA76EA682F28EA694A0A302D0A09388
:10117000EAD7A0A1C0EF08F0A091090096EF08F00F
:10118000A085010EEA6E020EE96EF86AEE50F76E67
:10119000EE50F66E800E9F6FEE500900F518D8A441
:1011A000A0959F2FF9D7A0A50AD0020EE26EE16AA2
:1011B000080EE66E000EE66E080EE66E1200020ED7
:1011C000E26EE16A9F6B480EE66E9F1B020EE66EB2
:1011D0009F1B000EE66E9F1B080EE66E9F1B9F5125
:0411E000E66E1200A5
:10600000C3600E000000000000000000000000005F
:106010000000000000000000000000000000000080
:106020000000000000000000000000000000000070
:106030000000000000000000F5C5D5E5DB06CB47F9
:10604000CA6200CB4FCA4B00C36800DB0332EF17B4
:106050003252022152023E02CD0F023E20D305C32E
:106060006800CD8802C36800E1D1C1F1FBED4D00AD
:106070000000000000000000000000000000000020
:106080000000000000000000000000000000000010
:106090000000000000000000000000000000000000
:1060A00000000000000000000000000000000000F0
:1060B00000000000000000000000000000000000E0
:1060C00000000000000000000000000000000000D0
:1060D00000000000000000000000000000000000C0
:1060E00000000000000000000000000000000000B0
:1060F00000000000000000000000000000000000A0
:10610000000000000390D00300A0252600D5DC325B
:1061100000404B4C0000000000CDE901F376F33263
:106120001801D306FBC9F3C52F473A1801A032184E
:1061300001D306C1FBC9F3C5473A1801B0321801B3
:10614000D306C1FBC9F53E0BCD820178CD8201F1AA
:10615000CD8201C93E0ACD820178CD8201CD610197
:10616000C9C53A7A04C602473A7A04A8280ADB0865
:10617000CB4F20F4C1DB02C9E521F017CDE901E1E5
:10618000C1C9F5DB08CB4720FAF1D302C93E3FCDA8
:106190008201F3763E00D304C93E10D304C9E6075A
:1061A000C620F608D304C93E20D304DB04C9F53E5B
:1061B00030F608D304F1D304C93E30D304DB04C95C
:1061C000F53E40F608D304F1D304C93E40D304DBC6
:1061D00004C9E607C660D304C9E607C650D304C99C
:1061E000E603C650F608D304C97EEE00C8D30523E3
:1061F000C3E901EE0020023E043DE6033CCD050765
:1062000021A10778CD0F02C9C5D5E50E801805C5B7
:10621000D5E50E0047E6FE0FCB4020013D8530015D
:10622000246F7ECB4028032B18040F0F0F0F114251
:1062300002E60F833001145F1AB1D30510E4E1D1F7
:10624000C1C93031323334353637383941424344AD
:106250004546000000000000000000003E80D30121
:106260003E00D301063C10FEC9C547DB01E61028FD
:10627000FA78D300C93E07D31E3EC0D311D313D33F
:1062800015D3173E08D31CC9DB1DCB5FC8CD9802C0
:106290003A7A043C327A04C9DB1ECBDFD31EDB1012
:1062A000327204DB12327304DB14E67F327404DBD7
:1062B00016327504DB19327604DB1A3277043E207D
:1062C000327804DB18327904DB1ECB9FD31EC9DB86
:1062D0001ECBDFD31EC9DB1ECB9FD31EC9CDCF0281
:1062E000DB1A3C27D31ACDD602CD9802CDCF023A85
:1062F00075041856CDCF02DB1A3D27D31ACDD6022E
:10630000CD9802CDCF023A7504183FCDCF02DB19EC
:106310003C271807CDCF02DB193D27280A47D613A3
:10632000FA290306011802061278D319CDD602CD38
:106330009802CDCF023A75041810CDCF02DB163C7F
:10634000271807CDCF02DB163D2747DB19EE0228C1
:1063500027EE023D219E04853001246F78EE00284F
:10636000093D96FA6B03060118014678D316CDD67F
:1063700002CD9802CD0804C93A7704CDB704219F15
:1063800004E60320D721AA0418D2CDCF02DB143CA7
:1063900027180FCDCF02DB14EE0028043D2718028A
:1063A0003E2347D624FAAA03060078D314CDD6029A
:1063B000CD9802C9CDCF02DB123C27180FCDCF02FA
:1063C000DB12EE0028043D2718023E5947D660FA3A
:1063D000D403060078D312CDD602CD9802C9CDCF12
:1063E00002DB103C27180FCDCF02DB10EE00280493
:1063F0003D2718023E5947D660FAFE03060078D3BF
:1064000010CDD602CD9802C9CDCF0206063A770448
:10641000CDB70480473A7704CDB704E6FC0F0F8070
:106420004721AB043A76043D853001246F7E8047D6
:106430003A7504CDB70480473A7604D603F24B048C
:106440003A7704CDB704E603200105780607CDC9E5
:10645000043CD318CDD602CD9802C9EE0020033AF1
:106460007904E6073DCB27CB272182048530012420
:106470006FC90000000000000000000000000000E4
:10648000000053756E004D6F6E00547565005765C2
:1064900064005468750046726900536174003128C5
:1064A00031303130313130313031290003030601D0
:1064B00004060205000305C54FE6F00F470F0F0F56
:1064C00087804779E60F80C1C9D5E5604F78EE0037
:1064D000C816011E0014CB2030FB780FF6804779D8
:1064E00090380628114F7A835F157AEE012805CB84
:1064F000087918EC791D4B44E1D1C9F53E01CD0373
:1065000005F1C9C5E54F0604219C0737CB7E200164
:106510003F7E1F772B10FA0D20ECE1C1C9F53E013B
:10652000CD2505F1C9C5E54F0604219907373F7E02
:1065300017772310FA0D20F0E1C1C9E5219D071856
:106540000AE521A1071804E5219907F5C5DDE5FD58
:10655000E53E000E000604DD219907FD219D07DDC3
:10656000860030010CFD860030010C77DD23FD2311
:1065700023790E0010E93AA907E6FCB12B2B2B2B4F
:10658000CDED0632A907FDE1DDE1C1F1E1C9E5216B
:106590009D07180AE521A1071804E5219907F5C50B
:1065A000DDE5FDE53E00373F0E000604DD219907DD
:1065B000FD219D07DD7E00FD9E0077DD23FD232369
:1065C00010F230020E013AA907E6FCB12B2B2B2B5F
:1065D000CDED0632A907FDE1DDE1C1F1E1C9E5D567
:1065E000C521000022A70722A30722A1072101003D
:1065F00022A507AF3AA007CB7F203D3AA507173267
:10660000A5073AA6071732A6073AA7071732A70722
:106610003AA8071732A807DAAD063A9D0717329D48
:10662000073A9E0717329E073A9F0717329F073A8D
:10663000A0071732A00718BC2A9907ED5B9D07ED4C
:1066400052EB2A9B07ED4B9F07ED42381E229B071A
:10665000ED5399072AA507ED5BA1071922A1072A87
:10666000A707ED5BA307ED5A22A307AF3AA8071FC0
:1066700032A8073AA7071F32A7073AA6071F32A674
:10668000073AA5071F32A507381E3AA0071F32A0F8
:10669000073A9F071F329F073A9E071F329E073A0D
:1066A0009D071F329D071890C1D1E1AFC93AA007DD
:1066B000CB7F281A2A990722A1072A9B0722A30722
:1066C000210000229907229B07C1D1E1AFC921FF18
:1066D000FF229907229B0722A10722A307C1D1E12C
:1066E0003EFF37C9F5C50108003E001807F5C50192
:1066F00004003E00EDA12008EAF406C1F1F602C94B
:10670000C1F1E6FDC9C5DDE5473E04904FDD219DA1
:10671000077EDD7700DD232310F73E00A9280A411C
:106720003E00DD7700DD2310F93E000608DD77002E
:10673000DD2310F90620219D07C5E506097E1777A0
:106740002310FAE1C1C5E578EE01CA91073E048540
:106750003001246F06057EE60FD605FA7207E5C5FF
:106760003E038677300A230528067EC6017718F493
:10677000C1E17EE6F0D650FA8E07E5C53E30867759
:10678000300A230528067EC6017718F4C1E12310DC
:10679000C5E1C110A4DDE1C1C90000000000000096
:1067A000000000000000000000003E21CD8201CD6D
:1067B0006101CD6101CB77C269083A650AE6FE3214
:1067C000650ACD6101CD6101CD6101CD6101CD6170
:1067D00001E60F326B0ACD6101E60307074FCD6179
:1067E00001073002CBC9073002CBC1E67C57CD612F
:1067F00001E6C00707B232670A7932680ACD610143
:10680000E603074FCD6101E6802802CBC179C602BD
:10681000326A0A4F3A670A3299073A680A329A0787
:106820003E00329B07329C0732A007329F07329E00
:10683000073E01329D07CD47053A6B0A81D609CD47
:1068400025053A990732670A3A9A0732680A3A9B4D
:106850000732690A3E00326A0ACD6101CD6101CD7D
:106860006101CD6101CD6101C93A650AF601326568
:106870000ACD6101CD6101CD6101CD6101CD610123
:10688000E60F326B0ACD6101CD6101E63F329B0715
:10689000CD6101329A07CD61013299073E00329CE9
:1068A0000732A007329F07329E073E01329D07CD77
:1068B00047053E02CD25053E0032670A3A99073268
:1068C000680A3A9A0732690A3A9B07326A0ACD6126
:1068D00001CD6101CD6101CD6101CD6101CD6101CC
:1068E000C9F5C5E5216C0A3A650AE601201EAF32FA
:1068F000700A373F3A6C0A1732710A3A6D0A17323A
:10690000720A3A6E0A1732730A21700A3E22CD8249
:106910000106047ECD82012310F9CD610132660AA1
:10692000010002E1CD7E09CD6101CD61013A660A27
:10693000FE4F2804C1F137C9C1F1373FC921560ABA
:10694000CDE901216C0A3E08CD0F023E0AD3052194
:10695000007E3A660AFE45CAA109FE54CAC2090170
:1069600000023E02CD0F023E20D305230B3E1FA1A5
:1069700020043E0AD305AFA820E8A920E5C9CD61CF
:106980000177230BE5110080AFED52E1300BA82019
:10699000EDA920EAC9CD61010BAFA820F8A920F527
:1069A000C921EA09CDE90121017E3E02CD0F022174
:1069B000070ACDE90121027E3E02CD0F023E0AD335
:1069C00005C921130ACDE90121017E3E02CD0F0246
:1069D00021310ACDE90121027E3E02CD0F023E0A9D
:1069E000D305C921420ACDE901C94469736B20630B
:1069F0006F6D6D616E64206572726F722C20436FD3
:106A00006D6D616E6420002C20526573706F6E7323
:106A10006520004469736B20616363657373207440
:106A2000696D656F75742C20436F6D6D616E6420A8
:106A3000002C204C61737420526573706F6E736507
:106A40002000556E6B6E6F776E206469736B2065E6
:106A500072726F720A004C6F6164696E6720626CBB
:106A60006F636B20000000000000000000000000C9
:106A700000000000E5D5C5F521007ECDE108DA046F
:106A80000C3A0D7E320B0E2A0E7E22160E3A107E26
:106A900032110E2A117E7C0F0F0F0F57E6F05F7A2E
:106AA000E60F577DE6F00F0F0F0FB35F7DE60F285F
:106AB0000113ED53FF0D110000ED53010E2A137E5B
:106AC00022180E210000221A0E2A167E22120E21F2
:106AD000000022140E21180E3E00EDA12010EDA1A1
:106AE000200C2A207E22180E2A227E221A0E210134
:106AF00000220C0E210000320E0E3E0032100E3A23
:106B00001601EE06CA270B2A247E22120E2A267EA2
:106B100022140E3A287EE60F32100E2A2C7E220C0A
:106B20000E2A2E7E220E0E2A160E22990721000012
:106B3000229B072A6C0A229D072A6E0A229F07CDF4
:106B400047052A120E229D072A140E229F073A108B
:106B50000EFE00280647CD470510FB2A990722FBA9
:106B60000D2A9B0722FD0D3A100E473A110E904751
:106B7000CD470510FB3A1601FE06201B2A99072275
:106B8000030E2A9B0722050E2AFF0D229D072A01CC
:106B90000E229F07CD47053A0B0E6F260029ED5BAD
:106BA0009907EB373FED5222070E1100002A9B0791
:106BB000ED5222090E2A070E2299072A090E229B5E
:106BC000072A6C0A229D072A6E0A229F07CD8E058E
:106BD0002A180E2299072A1A0E229B07CD9A053AE7
:106BE0000B0E6F2600229D07210000229F07CDDE9D
:106BF000052AA10722F70D2AA30722F90DF1C1D119
:106C0000E1373FC9F1C1D1E137C9E5D5C5F53A163C
:106C100001EE0628423E0021EC0D010300EDA1200B
:106C200010EA1D0C3AEB0DFE00CAE90CFE01CAE9A0
:106C30000C2AEB0D229D072AED0D229F072AF70D46
:106C40002299072AF90D229B07CD9A053AA907CB6D
:106C500047C2E90CC3960CAF21EC0DEDA92009BE8B
:106C6000CAE90C3E01BE280EED5BEB0D2AF70DEDD7
:106C7000523876C3960C2A030E22EF0DED5BFF0D02
:106C80001922F30D2A050E22F10DED5B010EED5ACE
:106C900022F50DC3D50C2AEB0D229D072AED0D22FE
:106CA0009F072A070E2299072A090E229B073A0BF3
:106CB0000E47CD470510FB2A990722EF0D3A0B0E20
:106CC0005F16001B1922F30D2A9B0722F10D1E00EF
:106CD000ED5A22F30D2AEF0D226C0A2AF10D226ED5
:106CE0000AF1C1D1E1CDE108C9AF32660AF1C1D1E3
:106CF000E137C9E5D5C5F5110000372AEF0DED5A8A
:106D000022EF0D2AF10DED5A22F10D373FED5BEF29
:106D10000D2AF30DED52ED5BF10D2AF50DED52DA72
:106D20003A0D2AEF0D226C0A2AF10D226E0AF1C1EA
:106D3000D1E1CDE108C9E5D5C5F53A1601EE062841
:106D4000582AFB0D229D072AFD0D229D072AEB0DD7
:106D50002299072AED0D229B073E07CD0305CD475B
:106D6000052A9907226C0A2A9B07226E0A21007EB7
:106D7000CDE10821007E3AEB0DE67F07175F3E006C
:106D80001757197E32EB0D237E32EC0D237E32ED48
:106D90000D237E32EE0DC30E0C2AFB0D229D072A19
:106DA000FD0D229D072AEC0D22990726003AEE0DD3
:106DB0006F229907CD47052A9907226C0A2A9B075B
:106DC000226E0A21007ECDE10821007E3AEB0D37CC
:106DD0003F175F3E00175719AF32EE0D32ED0D7EB3
:106DE00032EC0D237E32EB0DC30E0C0000000000D0
:106DF0000000000000000000000000000000000093
:106E00000000000000000000000000000000000082
:106E1000000000000000000000000000DB08CB7F45
:106E200020FADB07C9F5DB08CB7F2808CB7720F6F3
:106E3000F1D307C9DB0718EE000000000120424F24
:106E40004F542E5A38420D0B20000000030D0E2027
:106E5000424F4F542E5A38420D2820000000000D9A
:106E600001002021FFFF7C77373FED423E1FACCA77
:106E7000750EC3660E21FFFF7EACCA8A0E373FED4A
:106E8000423E1FACCA8A0EC3780E220001210000C8
:106E900022020121FF3FF9CD5C020601CD5401E63B
:106EA000033204010600CD5401E603321501DB086C
:106EB000CB6F20FACD940121A212CDE9012A000165
:106EC000232252022152023E020605CDF30121C3C4
:106ED00012225202CDE901CD75023EFECD1E01ED1A
:106EE00056FB217F12DB08CB5FC219013A7A04C638
:106EF000024F215F123A7A04A9CA1901DB08CB6755
:106F000020F33EE0D3033A7A04C6064F3A7A04A946
:106F10002822F33E00D306DB06CB4F28083A18019F
:106F2000D306FB18E7DB03EE7F20F23A1801D30605
:106F3000FBC3E9133A1501FE02280FFE03281AFECF
:106F4000002810FE01281BC3680FCD6E0FCDC410A2
:106F5000C3680FCD6E0FC3680FCDC410CD6E0FC3C5
:106F6000680FCDC410C3680F211B13C31901DB08C0
:106F7000CB57C2A90FCDAA07AF326C0A326D0A32C5
:106F80006E0A326F0A21007ECDE108DA281006046D
:106F900021C27F7EFE062818FE0B2814111000194E
:106FA00010F121E812CDE901C9210613CDE901C98B
:106FB00032160101040009116C0AEDB0CD740ADA31
:106FC00028102A0C0E22EB0D2A0E0E22ED0D2100A8
:106FD0007ECD0A0CDA281021007EE5FDE17EFEE57B
:106FE000CA0310FE00CA2110DD216813010B00DD69
:106FF00023DD7E00EDA1200BEAEF0F3E0FBE28033C
:10700000C33B10FDE5E111200019EB210080AFED3D
:1070100052EB20C621007ECDF30C380521007E18EE
:10702000B9217413CDE901C9214C13CDE9012166C1
:107030000A3E02CD0F023E0AD305C921000022ED0F
:107040000DFD7E1A32EB0DFD7E1B32EC0D3A160162
:10705000FE06280CFD7E1432ED0DFD7E1532EE0D80
:1070600021007ECD0A0CDA28103A007EFE02C2BD55
:1070700010CD990121DD13CDE9012A017EAF010078
:1070800002ED423805CDF30C18F709AFEB210002F1
:10709000ED52E5C121007E19110000F3EDB0EBCDFA
:1070A000F30CEB21FF7FAFED52280FEB3A660AFE9F
:1070B000002807FE4F28E8C32810C30000219F13B3
:1070C000CDE901C93A7A04C603473A7A04B8280BD5
:1070D000DB08CB7FC2CA10DB0718EF3E53CD250E6D
:1070E0003E43CD250E3E53CD250E3E0DCD250ECD76
:1070F0001C0EFE3EC25412CD1C0EFE0DC254123E9A
:1071000091CD250E3E0DCD250ECD1C0EFE3EC2545A
:1071100012CD1C0EFE0DC25412060B213C0E7E2316
:10712000CD250E10F9CD1C0EFE0DC25412CD1C0E35
:10713000FE42C25412CD1C0EFE4FC25412CD1C0E84
:10714000FE4FC25412CD1C0EFE54C25412CD1C0E62
:10715000FE2EC25412CD1C0EFE5AC25412CD1C0E6D
:10716000FE38C25412CD1C0EFE42C25412CD1C0E6B
:10717000FE20C25412CD1C0E32380ECD1C0E3239F8
:107180000ECD1C0E323A0ECD1C0E323B0ECD1C0E17
:10719000CD1C0ECD1C0E214E0E060B7ECD250E23D2
:1071A00010F9CD1C0EFE3EC25412CD1C0EFE0DC2B7
:1071B000541221470E06077ECD250E2310F9CD1C53
:1071C0000EFE02C2BD10CD990121DD13CDE901CD26
:1071D0001C0E5F325E0ECD1C0E57325D0EED539DC0
:1071E00007210000229F072A380E2299072A3A0E0B
:1071F000229B07CD9A05ED4B9907210080229D0720
:10720000CD9A053AA907CB47C20E12010080793208
:107210004C0E78324B0EC521590E06077ECD250E39
:107220002310F9CD1C0EFE3EC25412CD1C0EFE0DD5
:10723000C25412F321470E06077ECD250E2310F906
:10724000C1210000CD1C0E77230BAF8020F68120DA
:10725000F3C30000D305DB08CB7FC0DB0718F50ABA
:107260004552524F523A204B6579626F61726420E9
:107270004E6F742044657465637465642E0A000A59
:107280004552524F523A204B6579626F61726420C9
:10729000636F6E74726F6C6C6572206572726F7260
:1072A0000A005A38302050726F6A656374204D614D
:1072B000726B20323A20426F6F74696E670A5241D6
:1072C0004D20002062797465730A0A5072657373E9
:1072D0002044454C45544520746F20656E7465729A
:1072E0002073657475700A004E6F20626F6F746151
:1072F000626C6520706172746974696F6E73206F5F
:107300006E2053440A004E6F205344206361726420
:1073100020696E7365727465640A004E6F204F5366
:1073200020666F756E642C20696E736572742073AD
:10733000797374656D206469736B20616E6420706D
:10734000726573732052455345540A00556E6B6E37
:107350006F776E206572726F7220696E204641549D
:10736000206472697665722000424F4F54202020BD
:10737000205A38424E6F204B65726E656C20666FE6
:10738000756E642E0A00466F756E64206120626F10
:107390006F7461626C65204B65726E656C0A005497
:1073A0006865206B65726E656C206F6E207468690D
:1073B00073206469736B206973206E6F7420636F30
:1073C0006D70617469626C65207769746820746897
:1073D000652068617264776172652E0A00426F6F82
:1073E00074696E672E2E2E0A00CD9901218F16CD5D
:1073F000E901CD5B15CD8C15CD43163AEF17EEA5FF
:10740000282F3AEF17EEA4283D3AEF17EEA62850A2
:107410003AEF17EEA728533AEF17EE8BCA61163AE8
:10742000EF17EE8ACA79163AEF17EE80CA8C161853
:10743000503E0032EF173A8E173C328E17EE08207E
:1074400040328E17183B3E0032EF173A8E17EE008F
:1074500028063D328E1718293E083D328E17182116
:107460003E0032EF1721A71718083E0032EF172110
:10747000B7173A8E17CB27853001246F5E2356EB62
:10748000E9CDB614218F170E007ECDC001237ECD2D
:10749000AE012346233A8E17B9280ADB05E67FD3CF
:1074A0000510F81808DB05F680D30510F80C3E0827
:1074B000A920D6C3F8133E03CDAE013E04CDC001D2
:1074C0003E00CD5B04CDE9013E08CDAE012177043D
:1074D0003A8E17EE0020073E04CD080218053E0440
:1074E000CD0F023E2DD3052B3A8E17EE0120073E1D
:1074F00002CD080218053E02CD0F023E2DD3052B0A
:107500003A8E17EE0220073E02CD080218053E0211
:10751000CD0F023E20D3052B3A8E17EE0320073EF7
:1075200002CD080218053E02CD0F023E3AD3052BCC
:107530003A8E17EE0420073E02CD080218053E02DF
:10754000CD0F023E3AD3052B3A8E17EE0520063EAC
:1075500002CD0802C93E02CD0F02C93E0FCDAE01D9
:107560003E06CDC0013A04011717210501853001FF
:10757000246F3E04CD050721A4073E02CD0F023E35
:107580002ED30521A3073E02CD0F02C93E08CDC070
:10759000013E0FCDAE013A150121C717CB2785302B
:1075A00001246F5E2356EBCDE901C9CDDD02C38115
:1075B00014CD0B03C38114CD3A03C38114CD8A03C8
:1075C000C38114CDB403C38114CDDE03C381143A47
:1075D00004013CEE0420023E04EE04320401CD5BC3
:1075E00015C381143A15013CEE0420023E04EE045A
:1075F000321501CD8C15C38114CDF402C38114CD95
:107600001403C38114CD4303C38114CD9303C381F9
:1076100014CDBD03C38114CDE703C381143A040123
:10762000EE0020023E043D320401CD5B15C38114FF
:107630003A1501EE0020023E043D321501CD8C15B5
:10764000C38114F33E00D306DB06CB4F2007DB03D8
:1076500032EF1718053E0032EF173A1801D306FB38
:10766000C93E0032EF173E03320401CD5B153E00E8
:10767000321501CD8C15C381143A04010601CD45A4
:10768000013A15010600CD4501C38C16C38D010AD0
:1076900020205A38302050726F6A656374204D6123
:1076A000726B20323A2042494F530A0A2020546913
:1076B0006D653A0A202020446F772C2079797979FA
:1076C0002D6D6D2D64642048483A4D4D3A53530A50
:1076D0000A2020436C6F636B2053706565643A2009
:1076E00030302E3030204D487A0A0A2020426F6F09
:1076F00074204F726465723A202053442C205553F5
:10770000420A0A2D2D2D2D2D2D2D2D2D2D2D2D2DDA
:107710002D2D2D2D2D2D2D2D2D2D2D2D2D2D2D2D99
:107720002D2D0A204631303D5361766520262051AB
:107730007569742020204631313D4C6F61642044CE
:10774000656661756C74732020204553433D436129
:107750006E63656C0A204C6566742F5269676874A5
:10776000204172726F77206B657973203D207365BD
:107770006C656374206669656C642C2055702F44B9
:107780006F776E203D206368616E67650A000004B4
:107790000804040D02041002041302041602041962
:1077A00002060F05080F07AB15B115B715BD15C3B8
:1077B00015C915CF15E415F915FF1505160B16118A
:1077C0001617161D163016CF17D717DF17E71753E2
:1077D0004420202020200055534220202020005308
:1077E000442C20555342005553422C205344000052
:1077F000726561642074696D6564206F75740A0038
:107800000000000000000000000000000000000078
:107810000000000000000000000000000000000068
:107820000000000000000000000000000000000058
:107830000000000000000000000000000000000048
:020000040030CA
:0E000000FF460000FF8181FF0FC00FE00F40A0
:00000001FF
