:020000040000FA
:040000000BEF00F012
:080008009EBA58EC00F09EBE08
:10001000A3EC06F011000F0EC16E37EC06F021ECD8
:1000200000F04EEC08F0ABEC04F090EC08F045EC7E
:1000300006F08CEC05F093EC00F0EEEC06F019EF16
:1000400000F0846B010EEA6EE96A000E806FC00E4C
:100050009412100EAF6E040EB06E240EAC6E100E25
:10006000AB6E080EB86EAB8ED08E9E9A9D8AF28EC5
:1000700012009EA8FED7AD6E1200E96AEE5039EC70
:1000800000F0EE5039EC00F0866FFF0B05E0EE500B
:1000900039EC00F0862FFBD78B9AEE5039EC00F04C
:1000A0001200AB98150E39EC00F0AB88AE50120080
:1000B000060EAB14F6E1FC0E8015F3E1000EFB6EAC
:1000C000000EFA6E8051E846E84667EF00F0F92628
:1000D00070EF00F076EF00F080EF00F087EF00F0B7
:1000E000AE50816FEE6E836F802B1200AE50826F28
:1000F000EE6E831B802B000E82631200802B120099
:10010000AE50EE6E831B822F1200802B1200AE5079
:10011000EE6E831B05E0831B8483802BE96A12004B
:10012000802BE96A120080A5120084B317EF04F057
:10013000E00E8115D8A42DEF04F0000EFB6E010E29
:10014000FA6E8151E846E846A6EF00F0F92643EF43
:1001500004F043EF04F028EF01F049EF01F069EFFC
:1001600001F094EF01F0E7EF00F008EF01F0BCEFD1
:1001700001F0D7EF01F043EF04F043EF04F043EF59
:1001800004F043EF04F043EF04F043EF04F043EFD7
:1001900004F043EF04F043EF04F043EF04F043EFC7
:1001A00004F043EF04F043EF04F043EF04F043EFB7
:1001B00004F043EF04F043EF04F043EF04F043EFA7
:1001C00004F043EF04F043EF04F043EF04F0EE508B
:1001D000020E926FEE18D8A457EF04F010EC06F060
:1001E000EE50966FEE50956F60EC06F018EC06F04E
:1001F000E96A8151EE6E856F010EEE6E851B975197
:10020000EE6E851B8551EE6E3DEC00F0A7EF04F01D
:10021000EE50030E926FEE18D8A457EF04F010ECD6
:1002200006F0EE50966FEE50956FEE50976F71ECB2
:1002300006F018EC06F0E96A8151EE6E856F000E4B
:10024000EE6E851B8551EE6E3DEC00F0A7EF04F0DD
:10025000EE50020E926FEE18D8A457EF04F010EC97
:1002600006F0EE50966FEE50956F83EC06F018ECAA
:1002700006F0E96A8151EE6E856F010EE66E851B10
:100280009751EE6E851B8551EE6E3DEC00F0A7EFA9
:1002900004F0EE50030E926FEE18D8A457EF04F05E
:1002A00010EC06F0EE50966FEE50956FEE50976F93
:1002B00092EC06F018EC06F0E96A8151EE6E856F5B
:1002C000000EE66E851B8551EE6E3DEC00F0A7EF4B
:1002D00004F0EE50030E926FEE18D8A457EF04F01E
:1002E00010EC06F0EE50966FEE50956FEE50866F64
:1002F000FE0E866188EF04F0E96A8151EE6E856F2B
:100300008651EE6E851B83EC06F09751EE6E851BD1
:10031000954B962B862FF7D718EC06F08551EE6E8D
:100320003DEC00F0A7EF04F0EE50030E926FEE509C
:10033000866F020E866557EF04F0EE50966FEE5012
:10034000956F020E865F10EC06F0EE50976F92EC00
:1003500006F0954B962B862FF8D718EC06F0E96A35
:100360008151EE6E856F000EEE6E851B8551EE6E2F
:100370003DEC00F0A7EF04F0EE50820E926FEE1805
:10038000D8A457EF04F0EE50E00BD8A48CEF04F0A3
:10039000EE507F0BD8A490EF04F0020EE96E600ED1
:1003A000EF26A8EC08F03DEC00F0A7EF04F0EE50CB
:1003B000010E926FEE18D8A457EF04F0EE50876F3D
:1003C000926BD8908737D8B09283D8908737D8B0BF
:1003D0009281E40E8727D8B0922B030E9225FA6EF5
:1003E0008751F96E6EEF04F0F2EF03F0F8EF03F0CF
:1003F000FEEF03F004EF04F06EEF04F06EEF04F094
:100400006EEF04F06EEF04F06EEF04F06EEF04F0A8
:100410006EEF04F06EEF04F06EEF04F06EEF04F098
:100420006EEF04F06EEF04F06EEF04F06EEF04F088
:100430006EEF04F06EEF04F06EEF04F06EEF04F078
:1007E0006EEF04F037EC06F009EC04F0A7EF04F02C
:1007F0002BEC06F009EC04F0A7EF04F045EC06F052
:1008000009EC04F0A7EF04F009EC04F0ACA2FED769
:10081000FF00E96A090EEE6E856F010EEE6E851B14
:10082000EE50851B8551EE6E3DEC00F01200E96A3A
:10083000800EEE6E856F030EEE6E851B000EEE6E63
:10084000851B010EEE6E851B8351EE6E851B855157
:10085000EE6E3DEC00F0A7EF04F0E96A810EEE6E5B
:10086000856F030EEE6E851B000EEE6E851B020E6D
:10087000EE6E851B8151EE6E851B8551EE6E3DEC53
:1008800000F0A7EF04F0E96A8151E88CEE6E856F05
:10089000020EEE6E851B000EEE6E851B030EEE6ED5
:1008A000851B8551EE6E3DEC00F0A7EF04F0E96A80
:1008B0008151E88CEE6E856F030EEE6E851B000E87
:1008C000EE6E851B040EEE6E851B9251EE6E851B3F
:1008D0008551EE6E3DEC00F0A7EF04F0020EE96EDC
:1008E000EF50926FE96A490EEE6E856F030EEE6E61
:1008F000851B000EEE6E851B090EEE6E851B925158
:10090000EE6E851B8551EE6E3DEC00F0A7EF04F016
:10091000050E926F94EF04F0060E926F94EF04F0C0
:10092000070E926F94EF04F0E96A8151E88CE66E4D
:10093000856F020EEE6E851B000EEE6E851B9251CA
:10094000EE6E8519EE6E3DEC00F0A7EF04F0E96A5B
:10095000846B806B12008B829492949A9496948804
:10096000000EC76E300EC66E8A6B060ED56E120074
:10097000100E886FECEC05F0882FFCD78B92400EA0
:100980008B6F8C6B8D6B8E6B8F6BAEEC05F065ECAB
:1009900005F0F2B406EF05F0ECEC05F0D59E010A87
:1009A000D8A4F7D7480E8B6F8F6B8E6B010E8D6FAF
:1009B000AA0E8C6FAEEC05F065EC05F0A5EC05F029
:1009C000D59E8A91E8B40DD0ECEC05F0ECEC05F086
:1009D000ECEC05F0010A2AE1ECEC05F0AA0A26E1AC
:1009E0008A8165EC05F0E90E8B6F000E8AB1400E2E
:1009F0008F6F8E6B8D6B8C6BAEEC05F0A5EC05F0FC
:100A0000010AF1E08A85D59E8B8212008AB70BD04D
:100A1000FF0A906FD96A030EDA6E540EDE6E8B51A8
:100A2000DE6E9051DE6E8A838B8212008AB70AD006
:100A3000906FD96A030EDA6E450EDE6E8B51DE6E54
:100A40009051DE6E8A838B8212008B92490E8B6FDF
:100A50008F6B8E6B8D6B8C6BAEEC05F065EC05F0DF
:100A6000A5EC05F0D59E000AE1E165EC05F0A5ECEA
:100A700005F0D59EFE0ADAE1100E886FECEC05F069
:100A8000DE6E882FFBD78B8212008B924A0E8B6F03
:100A90008F6B8E6B8D6B8C6BAEEC05F065EC05F09F
:100AA000A5EC05F0D59E000AC1E165EC05F0A5ECCA
:100AB00005F0D59EFE0ABAE1100E886FECEC05F049
:100AC000DE6E882FFBD78B821200D76AD66AD58E4E
:100AD000F29412008B92510E8B6FAEEC05F065EC28
:100AE00005F0A5EC05F0D59E000AA0E165EC05F047
:100AF000A5EC05F0D59EFE0AFBE1010E886F020E03
:100B0000896FECEC05F0DE6E8807D8B0FAD789075C
:100B1000D8B0F7D78B82120081B814D0060E8A1590
:100B2000D8A412008AB704D065EC05F08A871200B9
:100B3000F2B401D01200D59EB8EC04F08AB58A9EBA
:100B40008A9712008A6B8A8E1200F2B406EF05F0C3
:100B5000ECEC05F0FF0AF9E0FF0A12008BBFC8ECCD
:100B600005F0ECEC05F08B517F0BF1EC05F08F51AB
:100B7000F1EC05F08E51F1EC05F08D51F1EC05F042
:100B80008C51F1EC05F0E3EC05F0F1EC05F012000E
:100B9000ECEC05F0770EF1EC05F0000EF1EC05F051
:100BA000000EF1EC05F0000EF1EC05F0000EF1EC9A
:100BB00005F0010EF1EC05F0A5EC05F07E0BD8A4D4
:100BC00016EF05F01200400E8B19D8B4950C480EA4
:100BD0008B19D8B4870C010CC968C7A0FED7C950BF
:100BE0001200C96EC7A0FED7C95012009351A96E5A
:100BF0009451A86EA69EA69CA684F29E550EA76E42
:100C0000AA0EA76EA682A6B2FED7F28EA6941200F6
:100C10009351A96EA69EA69CA680A850946F120020
:100C20009851996F000A01E012002BEC06F01200B7
:100C30009851991901E1120099B125EF06F099B385
:100C400028EF06F045EC06F0120037EC06F0120033
:100C50002BEC06F012008ACF9BF093CF9CF0899288
:100C600082B0FED7020E986F49EC06F01200899010
:100C7000C00E9B6F1F0E9C6F9D6B9E6B9F6B000049
:100C8000010E986F49EC06F01200986B54EC06F0D8
:100C900012009D9E936AEC0E9616FF0E8D6ED00E7E
:100CA00092163C0E891212009BC08AFF9CC093FFD3
:100CB000170E96128968CC0E926E9E9E9D8E120023
:100CC00096518A6E899A9551898A8A6E0000899612
:100CD0008D90000080A8FED783508D808986976F05
:100CE000120096518A6E899A9551898A8A6E975117
:100CF0008C6E956A89968D92000080A8FED78D82B1
:100D000089869568120096518A6E899A9551898ACA
:100D10008A6E89948D9080A8FED783508D808984B7
:100D2000976F120096518A6E899A9551898A8A6EB8
:100D300097518C6E956A89948D9280A8FED78D828A
:100D40008984956812009FB147D09FB504D09FB3A6
:100D500019D096BE17D096BEECEF06F08A8C9F8510
:100D600005EC08F0000AD8B4BDEF06F0DE50836E43
:100D70009D4F9E078A9C9E9E12009F959F939E9ECC
:100D80008A9A120096AE28D08A8A9FB316D0030E94
:100D9000DA6ED96A8350DE6EF76AE8441C0FD8B069
:100DA000F72AF66E100EF726F86A0900F5CF9DF0C7
:100DB0000800F5CF9EF09F8302D08350DE6E05ECD5
:100DC00008F0000A05E09D4F9E079E9E8A9A120039
:100DD0009F939F819E9E12009E9E12009FA11200D3
:100DE000030EDA6ED96A0D0EFA6EDF503F0BE8443F
:100DF000E844FA0FD8B0FA2AF96E7DEF07F07DEFDC
:100E000007F07DEF07F07DEF07F07DEF07F07DEF56
:100E100007F07DEF07F07DEF07F07DEF07F07DEF46
:100E200007F090EF07F083EF07F07DEF07F07DEF1D
:100E300007F07DEF07F07DEF07F07DEF07F07DEF26
:100E400007F07DEF07F07DEF07F07DEF07F07DEF16
:100E500007F07DEF07F07DEF07F07DEF07F07DEF06
:100E600007F07DEF07F07DEF07F07DEF07F07DEFF6
:100E700007F07DEF07F07DEF07F0BEEF07F0D3EF4F
:100E800007F09EEF07F07DEF07F07DEF07F07DEFB5
:100E900007F07DEF07F07DEF07F07DEF07F07DEFC6
:100EA00007F07DEF07F07DEF07F07DEF07F07DEFB6
:100EB00007F07DEF07F07DEF07F07DEF07F07DEFA6
:100EC00007F07DEF07F07DEF07F07DEF07F07DEF96
:100ED00007F07DEF07F07DEF07F07DEF07F07DEF86
:100EE00007F07DEF07F07DEF07F07DEF07F07DEF76
:100EF00007F07DEF07F004EF08F09F919F959F9317
:100F00008A9A8A8C1200D92ADECF93F0DECF94F031
:100F1000F6EC05F09F919F959F938A8C8A9A120018
:100F2000D92ADECF93F008EC06F0836E9D6B9E6BA2
:100F30009F919F939F858A8A8A9C1200D92ADECF2F
:100F40008CF0DECF8DF0DECF8EF0DECF8FF0030E93
:100F5000DA6ED96A4F0EDE6E6AEC05F0030E9E6FF4
:100F6000030E9D6FD96A030EDA6EDE50836E9D0705
:100F70009F919F939F858A9C8A8A1200030EDA6E46
:100F8000D96A4F0EDE6E45EC05F0110E9D6F010E15
:100F90009E6FD96ADE50836E9D079F919F939F85B8
:100FA0008A9C8A8A1200030EDA6ED96A4F0EDE6EB0
:100FB00025EC05F0110E9D6F010E9E6FD96ADE5073
:100FC000836E9D079F919F939F858A9C8A8A1200BA
:100FD000D92ADF50010A0BE0DF50020A08E0DF5097
:100FE000040A05E0D96A450E836EFCEF07F0DF5076
:100FF000916FD96A4F0E836E9D6B9E6B9F919F93ED
:101000009F858A9C8A8A1200FF009E51000AD8A4FC
:10101000FF0C9D51000AD8A4FF0C000C000000003A
:1010200000000000000000000000000000000000C0
:1010300001010201000000000000000000000000AB
:1010400000000000000000000000000000000000A0
:101050000000000000000000000000000000000090
:10106000040100000000000000000000000000007B
:101070000000000000000000000000000000000070
:101080000000000000000000000000000000000060
:10109000000000000000000000000000010E936F3F
:1010A00008EC06F0100EA26F9451030BE844E844DC
:1010B000C00FD8B0A22BA36FA251FA6EA351F96E44
:1010C00068EF08F072EF08F07CEF08F086EF08F0A8
:1010D000270ECB6E0C0EBD6E140EBE6E9494040ED5
:1010E000CA6E1200030ECB6E0C0EBD6E020EBE6EEB
:1010F0009494040ECA6E1200020ECB6E2C0EBD6EBE
:10110000010EBE6E9494040ECA6E1200010ECB6ED8
:101110000C0EBD6E010EBE6E9494040ECA6E1200CB
:1011200010EC06F0F86A600EF76EF66A800EA66E96
:10113000966B956B0900F5CF97F092EC06F0953F12
:10114000F9D7962B9651200AF5E118EC06F012001B
:10115000F86AEE50F76EEE50F66EA181A68EA69C50
:10116000A684A688F29E550EA76EAA0EA76EA6822A
:10117000F28E0A00A183200EA06FEE50F56E0F00D4
:10118000A02FFBD7A68EA69CA684F29E550EA76E16
:10119000AA0EA76EA682F28EA694A1A302D0A19356
:1011A000EAD7A1A1D8EF08F0A1910900AEEF08F0AD
:1011B000A185010EEA6E020EE96EF86AEE50F76E36
:1011C000EE50F66E800EA06FEE500900F518D8A410
:1011D000A195A02FF9D7A1A50AD0020EE26EE16A6F
:1011E000080EE66E000EE66E080EE66E1200020EA7
:1011F000E26EE16AA06B480EE66EA01B020EE66E80
:10120000A01B000EE66EA01B080EE66EA01BA051F0
:04121000E66E120074
:10600000C3600E000000000000000000000000005F
:106010000000000000000000000000000000000080
:106020000000000000000000000000000000000070
:106030000000000000000000F5C5D5E5DB06CB47F9
:10604000CA6200CB4FCA4B00C36800DB0332721830
:106050003252022152023E02CD0F023E20D305C32E
:106060006800CD8802C36800E1D1C1F1FBED4D00AD
:106070000000000000000000000000000000000020
:106080000000000000000000000000000000000010
:106090000000000000000000000000000000000000
:1060A00000000000000000000000000000000000F0
:1060B00000000000000000000000000000000000E0
:1060C00000000000000000000000000000000000D0
:1060D00000000000000000000000000000000000C0
:1060E00000000000000000000000000000000000B0
:1060F00000000000000000000000000000000000A0
:10610000000000000390D00300A0252600D5DC325B
:1061100000404B4C0000000000CDE901F376F33263
:106120001801D306FBC9F3C52F473A1801A032184E
:1061300001D306C1FBC9F3C5473A1801B0321801B3
:10614000D306C1FBC9F53E0BCD820178CD8201F1AA
:10615000CD8201C93E0ACD820178CD8201CD610197
:10616000C9C53A7A04C602473A7A04A8280ADB0865
:10617000CB4F20F4C1DB02C9E5217318CDE901E161
:10618000C1C9F5DB08CB4720FAF1D302C93E3FCDA8
:106190008201F3763E00D304C93E10D304C9E6075A
:1061A000C620F608D304C93E20D304DB04C9F53E5B
:1061B00030F608D304F1D304C93E30D304DB04C95C
:1061C000F53E40F608D304F1D304C93E40D304DBC6
:1061D00004C9E607C660D304C9E607C650D304C99C
:1061E000E603C650F608D304C97EEE00C8D30523E3
:1061F000C3E901EE0020023E043DE6033CCD050765
:1062000021A10778CD0F02C9C5D5E50E801805C5B7
:10621000D5E50E0047E6FE0FCB4020013D8530015D
:10622000246F7ECB4028032B18040F0F0F0F114251
:1062300002E60F833001145F1AB1D30510E4E1D1F7
:10624000C1C93031323334353637383941424344AD
:106250004546000000000000000000003E80D30121
:106260003E00D301063C10FEC9C547DB01E61028FD
:10627000FA78D300C93E07D31E3EC0D311D313D33F
:1062800015D3173E08D31CC9DB1DCB5FC8CD9802C0
:106290003A7A043C327A04C9DB1ECBDFD31EDB1012
:1062A000327204DB12327304DB14E67F327404DBD7
:1062B00016327504DB19327604DB1A3277043E207D
:1062C000327804DB18327904DB1ECB9FD31EC9DB86
:1062D0001ECBDFD31EC9DB1ECB9FD31EC9CDCF0281
:1062E000DB1A3C27D31ACDD602CD9802CDCF023A85
:1062F00075041856CDCF02DB1A3D27D31ACDD6022E
:10630000CD9802CDCF023A7504183FCDCF02DB19EC
:106310003C271807CDCF02DB193D27280A47D613A3
:10632000FA290306011802061278D319CDD602CD38
:106330009802CDCF023A75041810CDCF02DB163C7F
:10634000271807CDCF02DB163D2747DB19EE0228C1
:1063500027EE023D219E04853001246F78EE00284F
:10636000093D96FA6B03060118014678D316CDD67F
:1063700002CD9802CD0804C93A7704CDB704219F15
:1063800004E60320D721AA0418D2CDCF02DB143CA7
:1063900027180FCDCF02DB14EE0028043D2718028A
:1063A0003E2347D624FAAA03060078D314CDD6029A
:1063B000CD9802C9CDCF02DB123C27180FCDCF02FA
:1063C000DB12EE0028043D2718023E5947D660FA3A
:1063D000D403060078D312CDD602CD9802C9CDCF12
:1063E00002DB103C27180FCDCF02DB10EE00280493
:1063F0003D2718023E5947D660FAFE03060078D3BF
:1064000010CDD602CD9802C9CDCF0206063A770448
:10641000CDB70480473A7704CDB704E6FC0F0F8070
:106420004721AB043A76043D853001246F7E8047D6
:106430003A7504CDB70480473A7604D603F24B048C
:106440003A7704CDB704E603200105780607CDC9E5
:10645000043CD318CDD602CD9802C9EE0020033AF1
:106460007904E6073DCB27CB272182048530012420
:106470006FC90000000000000000000000000000E4
:10648000000053756E004D6F6E00547565005765C2
:1064900064005468750046726900536174003128C5
:1064A00031303130313130313031290003030601D0
:1064B00004060205000305C54FE6F00F470F0F0F56
:1064C00087804779E60F80C1C9D5E5604F78EE0037
:1064D000C816011E0014CB2030FB780FF6804779D8
:1064E00090380628114F7A835F157AEE012805CB84
:1064F000087918EC791D4B44E1D1C9F53E01CD0373
:1065000005F1C9C5E54F0604219C0737CB7E200164
:106510003F7E1F772B10FA0D20ECE1C1C9F53E013B
:10652000CD2505F1C9C5E54F0604219907373F7E02
:1065300017772310FA0D20F0E1C1C9E5219D071856
:106540000AE521A1071804E5219907F5C5DDE5FD58
:10655000E53E000E000604DD219907FD219D07DDC3
:10656000860030010CFD860030010C77DD23FD2311
:1065700023790E0010E93AA907E6FCB12B2B2B2B4F
:10658000CDED0632A907FDE1DDE1C1F1E1C9E5216B
:106590009D07180AE521A1071804E5219907F5C50B
:1065A000DDE5FDE53E00373F0E000604DD219907DD
:1065B000FD219D07DD7E00FD9E0077DD23FD232369
:1065C00010F230020E013AA907E6FCB12B2B2B2B5F
:1065D000CDED0632A907FDE1DDE1C1F1E1C9E5D567
:1065E000C521000022A70722A30722A1072101003D
:1065F00022A507AF3AA007CB7F203D3AA507173267
:10660000A5073AA6071732A6073AA7071732A70722
:106610003AA8071732A807DAAD063A9D0717329D48
:10662000073A9E0717329E073A9F0717329F073A8D
:10663000A0071732A00718BC2A9907ED5B9D07ED4C
:1066400052EB2A9B07ED4B9F07ED42381E229B071A
:10665000ED5399072AA507ED5BA1071922A1072A87
:10666000A707ED5BA307ED5A22A307AF3AA8071FC0
:1066700032A8073AA7071F32A7073AA6071F32A674
:10668000073AA5071F32A507381E3AA0071F32A0F8
:10669000073A9F071F329F073A9E071F329E073A0D
:1066A0009D071F329D071890C1D1E1AFC93AA007DD
:1066B000CB7F281A2A990722A1072A9B0722A30722
:1066C000210000229907229B07C1D1E1AFC921FF18
:1066D000FF229907229B0722A10722A307C1D1E12C
:1066E0003EFF37C9F5C50108003E001807F5C50192
:1066F00004003E00EDA12008EAF406C1F1F602C94B
:10670000C1F1E6FDC9C5DDE5473E04904FDD219DA1
:10671000077EDD7700DD232310F73E00A9280A411C
:106720003E00DD7700DD2310F93E000608DD77002E
:10673000DD2310F90620219D07C5E506097E1777A0
:106740002310FAE1C1C5E578EE01CA91073E048540
:106750003001246F06057EE60FD605FA7207E5C5FF
:106760003E038677300A230528067EC6017718F493
:10677000C1E17EE6F0D650FA8E07E5C53E30867759
:10678000300A230528067EC6017718F4C1E12310DC
:10679000C5E1C110A4DDE1C1C90000000000000096
:1067A000000000000000000000003E21CD8201CD6D
:1067B0006101CD6101CB77C269083A650AE6FE3214
:1067C000650ACD6101CD6101CD6101CD6101CD6170
:1067D00001E60F326B0ACD6101E60307074FCD6179
:1067E00001073002CBC9073002CBC1E67C57CD612F
:1067F00001E6C00707B232670A7932680ACD610143
:10680000E603074FCD6101E6802802CBC179C602BD
:10681000326A0A4F3A670A3299073A680A329A0787
:106820003E00329B07329C0732A007329F07329E00
:10683000073E01329D07CD47053A6B0A81D609CD47
:1068400025053A990732670A3A9A0732680A3A9B4D
:106850000732690A3E00326A0ACD6101CD6101CD7D
:106860006101CD6101CD6101C93A650AF601326568
:106870000ACD6101CD6101CD6101CD6101CD610123
:10688000E60F326B0ACD6101CD6101E63F329B0715
:10689000CD6101329A07CD61013299073E00329CE9
:1068A0000732A007329F07329E073E01329D07CD77
:1068B00047053E02CD25053E0032670A3A99073268
:1068C000680A3A9A0732690A3A9B07326A0ACD6126
:1068D00001CD6101CD6101CD6101CD6101CD6101CC
:1068E000C9F5C5E5216C0A3A650AE601201EAF32FA
:1068F000700A373F3A6C0A1732710A3A6D0A17323A
:10690000720A3A6E0A1732730A21700A3E22CD8249
:106910000106047ECD82012310F9CD610132660AA1
:10692000010002E1CD7E09CD6101CD61013A660A27
:10693000FE4F2804C1F137C9C1F1373FC921560ABA
:10694000CDE901216C0A3E08CD0F023E0AD3052194
:10695000002E3A660AFE45CAA109FE54CAC20901C0
:1069600000023E02CD0F023E20D305230B3E1FA1A5
:1069700020043E0AD305AFA820E8A920E5C9CD61CF
:106980000177230BE5110080AFED52E1300BA82019
:10699000EDA920EAC9CD61010BAFA820F8A920F527
:1069A000C921EA09CDE90121012E3E02CD0F0221C4
:1069B000070ACDE90121022E3E02CD0F023E0AD385
:1069C00005C921130ACDE90121012E3E02CD0F0296
:1069D00021310ACDE90121022E3E02CD0F023E0AED
:1069E000D305C921420ACDE901C94469736B20630B
:1069F0006F6D6D616E64206572726F722C20436FD3
:106A00006D6D616E6420002C20526573706F6E7323
:106A10006520004469736B20616363657373207440
:106A2000696D656F75742C20436F6D6D616E6420A8
:106A3000002C204C61737420526573706F6E736507
:106A40002000556E6B6E6F776E206469736B2065E6
:106A500072726F720A004C6F6164696E6720626CBB
:106A60006F636B20000000000000000000000000C9
:106A700000000000E5D5C5F521002ECDE108DA04BF
:106A80000C3A0D2E320B0E2A0E2E22160E3A102E16
:106A900032110E2A112E7C0F0F0F0F57E6F05F7A7E
:106AA000E60F577DE6F00F0F0F0FB35F7DE60F285F
:106AB0000113ED53FF0D110000ED53010E2A132EAB
:106AC00022180E210000221A0E2A162E22120E2142
:106AD000000022140E21180E3E00EDA12010EDA1A1
:106AE000200C2A202E22180E2A222E221A0E2101D4
:106AF00000220C0E210000320E0E3E0032100E3A23
:106B00001601EE06CA270B2A242E22120E2A262E42
:106B100022140E3A282EE60F32100E2A2C2E220CAA
:106B20000E2A2E2E220E0E2A160E22990721000062
:106B3000229B072A6C0A229D072A6E0A229F07CDF4
:106B400047052A120E229D072A140E229F073A108B
:106B50000EFE00280647CD470510FB2A990722FBA9
:106B60000D2A9B0722FD0D3A100E473A110E904751
:106B7000CD470510FB3A1601FE06201B2A99072275
:106B8000030E2A9B0722050E2AFF0D229D072A01CC
:106B90000E229F07CD47053A0B0E6F260029ED5BAD
:106BA0009907EB373FED5222070E1100002A9B0791
:106BB000ED5222090E2A070E2299072A090E229B5E
:106BC000072A6C0A229D072A6E0A229F07CD8E058E
:106BD0002A180E2299072A1A0E229B07CD9A053AE7
:106BE0000B0E6F2600229D07210000229F07CDDE9D
:106BF000052AA10722F70D2AA30722F90DF1C1D119
:106C0000E1373FC9F1C1D1E137C9E5D5C5F53A163C
:106C100001EE0628423E0021EC0D010300EDA1200B
:106C200010EA1D0C3AEB0DFE00CAE90CFE01CAE9A0
:106C30000C2AEB0D229D072AED0D229F072AF70D46
:106C40002299072AF90D229B07CD9A053AA907CB6D
:106C500047C2E90CC3960CAF21EC0DEDA92009BE8B
:106C6000CAE90C3E01BE280EED5BEB0D2AF70DEDD7
:106C7000523876C3960C2A030E22EF0DED5BFF0D02
:106C80001922F30D2A050E22F10DED5B010EED5ACE
:106C900022F50DC3D50C2AEB0D229D072AED0D22FE
:106CA0009F072A070E2299072A090E229B073A0BF3
:106CB0000E47CD470510FB2A990722EF0D3A0B0E20
:106CC0005F16001B1922F30D2A9B0722F10D1E00EF
:106CD000ED5A22F30D2AEF0D226C0A2AF10D226ED5
:106CE0000AF1C1D1E1CDE108C9AF32660AF1C1D1E3
:106CF000E137C9E5D5C5F5110000372AEF0DED5A8A
:106D000022EF0D2AF10DED5A22F10D373FED5BEF29
:106D10000D2AF30DED52ED5BF10D2AF50DED52DA72
:106D20003A0D2AEF0D226C0A2AF10D226E0AF1C1EA
:106D3000D1E1CDE108C9E5D5C5F53A1601EE062841
:106D4000582AFB0D229D072AFD0D229D072AEB0DD7
:106D50002299072AED0D229B073E07CD0305CD475B
:106D6000052A9907226C0A2A9B07226E0A21002E07
:106D7000CDE10821002E3AEB0DE67F07175F3E00BC
:106D80001757197E32EB0D237E32EC0D237E32ED48
:106D90000D237E32EE0DC30E0C2AFB0D229D072A19
:106DA000FD0D229D072AEC0D22990726003AEE0DD3
:106DB0006F229907CD47052A9907226C0A2A9B075B
:106DC000226E0A21002ECDE10821002E3AEB0D376C
:106DD0003F175F3E00175719AF32EE0D32ED0D7EB3
:106DE00032EC0D237E32EB0DC30E0C0000000000D0
:106DF0000000000000000000000000000000000093
:106E00000000000000000000000000000000000082
:106E1000000000000000000000000000DB08CB7F45
:106E200020FADB07C9F5DB08CB7F2808CB7720F6F3
:106E3000F1D307C9DB0718EE000000000120424F24
:106E40004F542E5A38420D0B20000000030D0E2027
:106E5000424F4F542E5A38420D2820000000000D9A
:106E600001000010FE10FE3E00D3203E01D3243E60
:106E7000FFD3223200803C3201803C3202803D3D13
:106E80003D20EE06FF21008078D322AE200D783C15
:106E900023AE2007783C3C23AE2806052803C38593
:106EA0000E21FF3FCB402802CBF4CB482802CBFC7D
:106EB000220001CB38CB3878320201AF32030121F6
:106EC000FF3FF9CD5C020601CD5401E60332040117
:106ED0000600CD5401E603321501DB08CB6F20FA22
:106EE000CD940121E812CDE9012A00011101001918
:106EF0002252022A0201110000ED5A2254022152AC
:106F0000023E030607CDF301210913225202CDE907
:106F100001CD75023EFECD1E01ED56FB21C512DBF3
:106F200008CB5FC219013A7A04C6024F21A5123A72
:106F30007A04A9CA1901DB08CB6720F33EE0D3032A
:106F40003A7A04C6064F3A7A04A92822F33E00D3BF
:106F500006DB06CB4F28083A1801D306FB18E7DBFF
:106F600003EE7F20F23A1801D306FBC36C143A15E6
:106F700001FE02280FFE03281AFE002810FE012839
:106F80001BC3A20FCDA80FCD0411C3A20FCDA80F14
:106F9000C3A20FCD0411CDA80FC3A20FCD0411C3FE
:106FA000A20F216113C31901212F14CDE901DB08C0
:106FB000CB57C2E90FCDAA07AF326C0A326D0A3245
:106FC0006E0A326F0A21002ECDE108DA681006043D
:106FD00021C22F7EFE062818FE0B2814111000195E
:106FE00010F1212E13CDE901C9214C13CDE901C9BE
:106FF00032160101040009116C0AEDB0CD740ADAF1
:1070000068102A0C0E22EB0D2A0E0E22ED0D210027
:107010002ECD0A0CDA681021002EE5FDE17EFEE59A
:10702000CA4310FE00CA6110DD21AE13010B00DD62
:1070300023DD7E00EDA1200BEA2F103E0FBE2803BA
:10704000C37B10FDE5E111200019EB210030AFED0D
:1070500052EB20C621002ECDF30C380521002E184E
:10706000B921BA13CDE901C9219213CDE9012166F5
:107070000A3E02CD0F023E0AD305C921000022EDCF
:107080000DFD7E1A32EB0DFD7E1B32EC0D3A160122
:10709000FE06280CFD7E1432ED0DFD7E1532EE0D40
:1070A00021002ECD0A0CDA68103A002EFE02C2FD35
:1070B00010CD9901212314CDE9012A012EAF010041
:1070C00002ED423805CDF30C18F709AFEB210002B1
:1070D000ED52E5C121002E19110000F3EDB0EBCD0A
:1070E000F30CEB21FF7FAFED52280FEB3A660AFE5F
:1070F000002807FE4F28E8C36810C3000021E513ED
:10710000CDE901C9214C14CDE9013A7A04C60347FF
:107110003A7A04B8280BDB08CB7FC21011DB0718C2
:10712000EF3E53CD250E3E43CD250E3E53CD250ECD
:107130003E0DCD250ECD1C0EFE3EC29A12CD1C0E6C
:10714000FE0DC29A123E91CD250E3E0DCD250ECDDF
:107150001C0EFE3EC29A12CD1C0EFE0DC29A1206E5
:107160000B213C0E7E23CD250E10F9CD1C0EFE0DFD
:10717000C29A12CD1C0EFE42C29A12CD1C0EFE4FB8
:10718000C29A12CD1C0EFE4FC29A12CD1C0EFE5496
:10719000C29A12CD1C0EFE2EC29A12CD1C0EFE5AA1
:1071A000C29A12CD1C0EFE38C29A12CD1C0EFE429F
:1071B000C29A12CD1C0EFE20C29A12CD1C0E32387D
:1071C0000ECD1C0E32390ECD1C0E323A0ECD1C0ED9
:1071D000323B0ECD1C0ECD1C0ECD1C0E214E0E06CC
:1071E0000B7ECD250E2310F9CD1C0EFE3EC29A1249
:1071F000CD1C0EFE0DC29A1221470E06077ECD252C
:107200000E2310F9CD1C0EFE02C2FD10CD990121F6
:107210002314CDE901CD1C0E5F325E0ECD1C0E573E
:10722000325D0EED539D07210000229F072A380E84
:107230002299072A3A0E229B07CD9A05ED4B990712
:10724000210080229D07CD9A053AA907CB47C25459
:107250001201008079324C0E78324B0EC521590E46
:1072600006077ECD250E2310F9CD1C0EFE3EC29AD8
:1072700012CD1C0EFE0DC29A12F321470E06077E98
:10728000CD250E2310F9C1210000CD1C0E77230B54
:10729000AF8020F68120F3C30000D305DB08CB7F4D
:1072A000C0DB0718F50A4552524F523A204B657918
:1072B000626F617264204E6F7420446574656374FC
:1072C00065642E0A000A4552524F523A204B6579A6
:1072D000626F61726420636F6E74726F6C6C657242
:1072E000206572726F720A005A38302050726F6ACD
:1072F000656374204D61726B20323A20426F6F7467
:10730000696E670A52414D20002062797465730AE4
:107310000A50726573732044454C45544520746F80
:1073200020656E7465722073657475700A004E6F07
:1073300020626F6F7461626C652070617274697431
:10734000696F6E73206F6E2053440A004E6F205396
:1073500044206361726420696E7365727465640AA7
:10736000004E6F204F5320666F756E642C20696E3F
:10737000736572742073797374656D206469736BBF
:1073800020616E64207072657373205245534554BA
:107390000A00556E6B6E6F776E206572726F722089
:1073A000696E2046415420647269766572200042FD
:1073B0004F4F54202020205A38424E6F204B657288
:1073C0006E656C20666F756E642E0A00466F756E72
:1073D00064206120626F6F7461626C65204B65721E
:1073E0006E656C0A00546865206B65726E656C2072
:1073F0006F6E2074686973206469736B20697320F1
:107400006E6F7420636F6D70617469626C65207754
:107410006974682074686520686172647761726558
:107420002E0A00426F6F74696E672E2E2E0A00546A
:107430007279696E6720746F20626F6F7420667254
:107440006F6D20534420636172640A00547279693D
:107450006E6720746F20626F6F742066726F6D208C
:10746000555342206465766963650A00CD99012110
:107470001217CDE901CDDE15CD0F16CDC6163A7225
:1074800018EEA5282F3A7218EEA4283D3A7218EE8D
:10749000A628503A7218EEA728533A7218EE8BCAF3
:1074A000E4163A7218EE8ACAFC163A7218EE80CACE
:1074B0000F1718503E003272183A11183C3211184A
:1074C000EE082040321118183B3E003272183A1173
:1074D00018EE0028063D32111818293E083D3211D9
:1074E0001818213E00327218212A1818083E00325E
:1074F0007218213A183A1118CB27853001246F5E93
:107500002356EBE9CD39152112180E007ECDC001AE
:10751000237ECDAE012346233A1118B9280ADB0594
:10752000E67FD30510F81808DB05F680D30510F8C0
:107530000C3E08A920D6C37B143E03CDAE013E0409
:10754000CDC0013E00CD5B04CDE9013E08CDAE01CA
:107550002177043A1118EE0020073E04CD080218E6
:10756000053E04CD0F023E2DD3052B3A1118EE0136
:1075700020073E02CD080218053E02CD0F023E2D27
:10758000D3052B3A1118EE0220073E02CD0802184F
:10759000053E02CD0F023E20D3052B3A1118EE0313
:1075A00020073E02CD080218053E02CD0F023E3AEA
:1075B000D3052B3A1118EE0420073E02CD0802181D
:1075C000053E02CD0F023E3AD3052B3A1118EE05C7
:1075D00020063E02CD0802C93E02CD0F02C93E0F71
:1075E000CDAE013E06CDC0013A04011717210501B9
:1075F000853001246F3E04CD050721A4073E02CD4E
:107600000F023E2ED30521A3073E02CD0F02C93E35
:1076100008CDC0013E0FCDAE013A1501214A18CB6D
:1076200027853001246F5E2356EBCDE901C9CDDDFE
:1076300002C30415CD0B03C30415CD3A03C30415CF
:10764000CD8A03C30415CDB403C30415CDDE03C333
:1076500004153A04013CEE0420023E04EE04320418
:1076600001CDDE15C304153A15013CEE0420023E9F
:1076700004EE04321501CD0F16C30415CDF402C378
:107680000415CD1403C30415CD4303C30415CD93D2
:1076900003C30415CDBD03C30415CDE703C304150F
:1076A0003A0401EE0020023E043D320401CDDE1515
:1076B000C304153A1501EE0020023E043D321501C7
:1076C000CD0F16C30415F33E00D306DB06CB4F20C7
:1076D00007DB0332721818053E003272183A18019F
:1076E000D306FBC93E003272183E03320401CDDEE0
:1076F000153E00321501CD0F16C304153A040106DC
:1077000001CD45013A15010600CD4501C30F17C350
:107710008D010A20205A38302050726F6A656374D8
:10772000204D61726B20323A2042494F530A0A20A1
:107730002054696D653A0A202020446F772C207907
:107740007979792D6D6D2D64642048483A4D4D3A14
:1077500053530A0A2020436C6F636B205370656596
:10776000643A2030302E3030204D487A0A0A2020EA
:10777000426F6F74204F726465723A202053442C1C
:10778000205553420A0A2D2D2D2D2D2D2D2D2D2D19
:107790002D2D2D2D2D2D2D2D2D2D2D2D2D2D2D2D19
:1077A0002D2D2D2D2D0A204631303D53617665203B
:1077B0002620517569742020204631313D4C6F617F
:1077C000642044656661756C7473202020455343C2
:1077D0003D43616E63656C0A204C6566742F526987
:1077E000676874204172726F77206B657973203DF2
:1077F0002073656C656374206669656C642C205524
:10780000702F446F776E203D206368616E67650A54
:107810000000040804040D020410020413020416FC
:1078200002041902060F05080F072E1634163A1621
:10783000401646164C16521667167C168216881687
:107840008E1694169A16A016B31652185A18621865
:107850006A18534420202020200055534220202025
:10786000200053442C20555342005553422C2053A2
:10787000440000726561642074696D6564206F75F1
:10788000740A00000000000000000000000000007A
:1078900000000000000000000000000000000000E8
:1078A00000000000000000000000000000000000D8
:1078B00000000000000000000000000000000000C8
:1078C00000000000000000000000000000000000B8
:020000040030CA
:0E000000FF460000FF8181FF0FC00FE00F40A0
:00000001FF
